:020000040800F2
:1000000058040020D9010008D31000085710000838
:10001000D1100008E50200087B1300080000000072
:10002000000000000000000000000000D7100008E1
:10003000E702000800000000D5100008D9100008F1
:10004000F3010008F3010008F3010008F3010008C0
:10005000F3010008F3010008F3010008F3010008B0
:10006000F3010008F3010008F3010008F3010008A0
:10007000F3010008F3010008F3010008F301000890
:10008000F3010008F3010008F3010008F301000880
:10009000F3010008F3010008F3010008F301000870
:1000A000F3010008F3010008F3010008F301000860
:1000B0006D110008F3010008F3010008F3010008C6
:1000C000F3010008F3010008F3010008F301000840
:1000D000F3010008F3010008F3010008F301000830
:1000E000F3010008F3010008F3010008F301000820
:1000F000F3010008F3010008F3010008F301000810
:10010000F3010008F3010008F3010008F3010008FF
:10011000F3010008F3010008F3010008F3010008EF
:10012000F3010008F3010008F3010008F3010008DF
:10013000F30100080000000000000000F3010008C7
:10014000F3010008F3010008F3010008F3010008BF
:10015000F3010008F3010008F3010008F3010008AF
:10016000F3010008F3010008F3010008F30100089F
:10017000F3010008F3010008F3010008000000008B
:1001800000000000F3010008000000000000000073
:10019000F30100080000000000000000F301000867
:1001A000000000000000000000000000F301000853
:1001B000F3010008F3010008F3010008F30100084F
:1001C000F3010008DFF80CD000F07AF8004800478F
:1001D000BD13000858040020064880470648004721
:1001E000FEE7FEE7FEE7FEE7FEE7FEE7FEE7FEE7E7
:1001F000FEE7FEE751110008C50100082DE9F05F98
:100200000546002092469B46884606468146402485
:100210001BE0284641464746224600F041F8534637
:100220005A46C01A914110D311461846224600F092
:1002300028F82D1A67EB01084F46224601200021BD
:1002400000F01FF817EB00094E41201EA4F1010435
:10025000DFDC484631462A464346BDE8F09FD2B22D
:1002600001E000F8012B491EFBD270470022F6E79F
:1002700010B513460A4604461946FFF7F0FF20461C
:1002800010BD202A04DB203A00FA02F1002070475A
:100290009140C2F1200320FA03F3194390407047C4
:1002A000202A04DB203A21FA02F00021704721FACB
:1002B00002F3D040C2F12002914008431946704732
:1002C000064C074D06E0E06840F0010394E80700A3
:1002D00098471034AC42F6D3FFF778FF0C140008AF
:1002E0002C140008FEE770472DE9F84F00224FF06C
:1002F000010803254FF00F0E0B6808FA02F42340A3
:10030000A3426ED14E68012E05D0022E03D0112ECD
:1003100001D0122E12D186684FEA420C05FA0CF772
:10032000BE43CF6807FA0CF7374387604668A64399
:100330000C79C4F30014944034434460C6685700F9
:1003400005FA07FC8C6826EA0C06BC403443C460FE
:100350004C68022C01D0122C13D1D40800EB840479
:10036000A346D4F8209054074FEAD46A0EFA0AF64E
:1003700029EA06090E6906FA0AF646EA0906CBF8E2
:10038000206006680C7926EA0C0604F00304BC40E1
:10039000344304604C68E40060D5334C266846F46E
:1003A00080462660246822F0030604F4804400940A
:1003B0002E4C3444A446D4F808489607370F0EFA5A
:1003C00007F6B4432A4EB04201D100261FE0294E61
:1003D000B04201D101261AE0274EB04202D10226D6
:1003E00015E03BE0254EB04201D103260FE0244E3C
:1003F000B04201D104260AE0224EB04201D10526C6
:1004000005E0214EB04201D1062600E00726BE409D
:100410002643CCF808681D4E34684F689C43FF03A0
:1004200000D51C433460194E361D34684F689C4318
:10043000BF0300D51C433460144E083634684F683F
:100440009C43FF0200D51C433460104E0C363468C8
:100450004F689C43BF0200D51C433460521C102AD5
:10046000FFF44AAFBDE8F88F443802400030014045
:10047000000002400004024000080240000C02405C
:10048000001002400014024000180240003C0140ED
:100490000148806870470000080000200248816819
:1004A0000278114481607047080000200B4810B5A5
:1004B000016841F400710160016841F480610160EC
:1004C000016841F480710160032000F06FF80020A2
:1004D00000F006F800F024F8002010BD003C0240B7
:1004E00070B50D4D04464FF47A712878B1FBF0F0E9
:1004F0000A490968B1FBF0F000F0F2FA48B9102C93
:1005000007D200222146501E00F030F800206C6017
:1005100070BD012070BD0000080000201400002004
:100520000A4808B5016841F480410160006800F4A0
:10053000804000900548001F016841F08051016033
:10054000006800F08050009008BD00004438024070
:10055000002809DB00F01F020121914040098000C2
:1005600000F1E020C0F8001170470000F0B40E4B1D
:100570001B680C46C3F30223C3F10705042D00D901
:100580000425191D072901D2002300E0DB1E0126E6
:1005900006FA05F1491E214099409E40761E1640FC
:1005A0003143F0BC00F0EABE0CED00E0064900F07B
:1005B000070208684FF6FF03184040EA0220034A8A
:1005C00010430860704700000CED00E00000FA05E1
:1005D0002DE9F0470E46050065D0DFF81481D8F804
:1005E0000000F7B200F00F00B04207D288F80070A8
:1005F000D8F8000000F00F00B04254D128683D4CFC
:10060000810712D5400703D5206840F4E0502060F0
:100610002878000703D5206840F4604020602068F7
:10062000A96820F0F000084320602878C0072DD08A
:10063000304968680839012812D0022813D00328ED
:1006400011D00968890700292DDA216821F00301FA
:1006500001432160FFF71CFF814641F2883A0EE01A
:1006600009688903EFE709688901ECE7FFF710FFE4
:10067000A0EB0901514502D90320BDE8F0872068AD
:10068000696800F00C00B0EB810FEFD1D8F80010D2
:10069000404601F00F01B14207D90770006800F031
:1006A0000F00B04201D00120E7E72878400705D5C8
:1006B0002068E96820F4E0500843206028780007AB
:1006C00006D52068296920F4604040EAC100206016
:1006D00000F018F82168084AC1F30311515CC840C2
:1006E0000649086006480068FFF7FAFE0020C4E7E4
:1006F000003C024008380240FC13000814000020AF
:100700000C000020224810B5006810F00C022148AF
:1007100015D02149042A11D01D4C241F082A0FD0BE
:100720000C2A0CD12268236802F03F025B0221D51B
:100730002068C0F38810A0FB010120E0084610BD2E
:100740002268236802F03F025B0205D52068C0F3EF
:100750008810A0FB010104E02168C1F38811A1FB0E
:1007600000010023FFF74AFD2168C1F30141491C44
:1007700049000AE02168C1F38811A1FB00010023B0
:10078000FFF73CFD2168C1F30271B0FBF1F010BD31
:10079000083802400024F40040787D012DE9F84F2C
:1007A0000546DFF828B30078ABF10407C007A7F1CE
:1007B000040451D0DBF800105846C1F3810101292F
:1007C0000FD00168C1F38101022902D139684902C1
:1007D00007D40068C0F38100032809D138684002BB
:1007E00006D52068800337D56868002872D033E0CA
:1007F0006868B0F5803F10D0B0F5A02F206810D009
:1008000020F480302060206820F480202060686818
:10081000A8B1FFF73DFE06460DE0206840F48030A9
:10082000F4E740F480202060F7E700BFFFF730FED8
:10083000801B642878D820688003F7D50CE0FFF788
:1008400027FE064605E000BFFFF722FE801B642856
:10085000F0D820688003F7D42878DFF874928007F6
:100860004FF0000A46D5DBF80010584611F00C0F87
:100870000FD00168C1F38101022902D13968490210
:1008800007D50068C0F38100032809D13868400209
:1008900006D42068800715D5E86801281AD111E030
:1008A000E868C0B10120C9F80000FFF7F1FD064675
:1008B00005E000BFFFF7ECFD801B0228BAD82068D6
:1008C0008007F7D52068296920F0F80040EAC100C8
:1008D00020600FE0F7E0C9F800A0FFF7D9FD064659
:1008E00005E000BFFFF7D4FD801B02281CD820685C
:1008F0008007F7D42878000727D5DFF8D08175481E
:10090000696908F16C0881B101210160FFF7C0FD40
:10091000064604E0FFF7BCFD801B022804D8D8F887
:1009200000008007F6D510E089E0C0F800A0FFF7CE
:10093000AFFD064605E000BFFFF7AAFD801B0228B9
:100940007DD8D8F800008007F6D42878400769D50C
:100950005E484FF0000838300068C0000BD45B4898
:100960003830016841F08051016000684FF00108A3
:1009700000F080500090584E3068C00511D43068A7
:1009800040F480703060FFF783FD009006E000BF08
:10099000FFF77EFD0099401A022850D83068C00544
:1009A000F6D54A4EA868683601280FD00528306869
:1009B00010D020F001003060306820F0040030607A
:1009C000A868B8B1FFF764FD00900FE0306840F010
:1009D0000100F4E740F004003060F7E7FFF758FD4E
:1009E0000099411A41F28830814264D8306880070A
:1009F000F4D50EE0FFF74CFD009007E0FFF748FD4F
:100A00000099411A41F28830814254D830688007F9
:100A1000F4D4B8F1000F05D02C483830016821F02B
:100A200080510160A869A8B3DBF80010C1F381010F
:100A3000022948D00228C9F860A005D000E03AE0B9
:100A4000FFF726FD054639E0FFF722FD064604E0E4
:100A5000FFF71EFD801B02282DD820688001F7D4E7
:100A6000F5E907010843E9681C4A490802EB01411E
:100A7000AA6841EA82110843297C40EA0160297D85
:100A800040EA017038600120C9F86000FFF700FDFE
:100A9000054606E015E000BFFFF7FAFC401B022800
:100AA00009D820688001F7D50BE000BFFFF7F0FC04
:100AB000401B022802D90320BDE8F88F206880017E
:100AC000F4D40020F8E70120F6E7000008380240DF
:100AD00000004742800E4742007000400000FFFFC8
:100AE00010B5401EB0F1807F01D3012010BD4FF042
:100AF000E02460610F21601700F040FC0020A0613D
:100B000007202061002010BD7047704770B590F835
:100B10003C20012A32D0012480F83C40022280F897
:100B20003D2003685A689D6822F070060A683243C7
:100B30005A60134B02689A4214D0B2F1804F11D020
:100B4000104B9A420ED0104B9A420BD00F4B9A4248
:100B500008D00F4B9A4205D00E4B9A4202D00E4B52
:100B60009A4204D1496825F080031943916080F8C6
:100B70003D40002180F83C10084670BD022070BD49
:100B8000000001400004004000080040000C00404C
:100B900000040140004001400018004010B504006E
:100BA00003D094F83D0010B107E0012010BD0020F3
:100BB00084F83C00204600F00DF8022084F83D0047
:100BC000211D206800F0D8FA012084F83D000020A3
:100BD00010BD000010B586B0044614216846FFF72A
:100BE00045FB2068B0F1804F26D1144800210268EF
:100BF00042F001020260006800F0010005900F4819
:100C00001038026842F0010202600068022200F01F
:100C10000100059001200090CDE90121CDE90310EC
:100C200069460748FFF760FB002211461C20FFF7CA
:100C30009DFC1C20FFF78CFC06B010BD4038024024
:100C40000000024070B5044690F83C00012817D01F
:100C5000012584F83C50022084F83D002068826819
:100C600022F0770222F47F4282600868502830D058
:100C70000DDC20284DD005DC98B310283BD148E08E
:100C8000022070BD302844D0402834D139E060289B
:100C900028D0702806D0B0F5805F2CD0B0F5005F6A
:100CA00029D10AE0CB68D1E90121206800F0D5FA0A
:100CB0002068816841F0770109E0CB68D1E9012122
:100CC000206800F0CAFA2068816841F480418160A0
:100CD00011E0CA684968206800F0D1FA5021206804
:100CE00007E016E0CA684968206800F019FB602137
:100CF000206800F0BCFA84F83D50002084F83C00E5
:100D000070BDCA684968206800F0B9FA40212068BF
:100D1000EFE7226801461046EBE700000068B0F1FB
:100D2000804F06D103480068416B034A516000219F
:100D30004162704718000020000000202DE9F041BA
:100D4000044690F83C000D4601283DD0012684F869
:100D50003C60022084F83D00AAB3042A46D02068F3
:100D6000082A55D0D5E90027E968036A23F480539F
:100D70000362D0F81CC0036A2CF4407C4CEA0727BD
:100D80004FF6FF7C27F470470CEA013139434FF4EA
:100D9000204723F4204307EA02321A43C16102626A
:100DA0002068C16921F44061C1612068C169AA68F5
:100DB00041EA0221C0F81C1084F83D60002084F84C
:100DC0003C00BDE8F08101E00220FAE7D5E900121D
:100DD000EB68206800F064FA2068816921F00C015A
:100DE000816120688169AA6811430FE0D5E900128A
:100DF000EB68206800F0A6FA2068816921F4406160
:100E0000816120688169AA6841EA02218161D3E792
:100E1000D5E9002C2F7B016A21F480710162C16940
:100E2000036A21F0030141EA0C0121F0F00C3907BB
:100E30004FF420674CEA116123F4206307EA022291
:100E40001A43C16102622068C16921F00C01C161CD
:100E50002068C169AA681143ACE710B5040003D04B
:100E600094F83D0010B107E0012010BD002084F887
:100E70003C00204600F00CF8022084F83D00211DC3
:100E8000206800F079F9012084F83D00002010BDB1
:100E9000704710B50268044631B1042908D008290A
:100EA0001AD00C2908D11BE0D06840F0020002E003
:100EB000D06840F00400D0600122206800F0C0F942
:100EC0002068816801F00701062903D0016841F01C
:100ED00001010160002010BDD06840F00800EAE781
:100EE000D06840F01000E6E770B50446006801697C
:100EF0004FF00005C943890715D4C168C943890764
:100F000011D4E91E016101202077206880698007E3
:100F1000204602D0FFF702FF04E000F098F82046D8
:100F200000F096F8257720680169C943490717D46E
:100F3000C168C943490713D46FF00401016102205D
:100F400020772068806910F4407F204602D0FFF7A8
:100F5000E5FE04E000F07BF8204600F079F8257704
:100F600020680169C943090716D4C168C943090744
:100F700012D46FF008010161042020772068C06955
:100F80008007204602D0FFF7C9FE04E000F05FF8BA
:100F9000204600F05DF8257720680169C943C9063D
:100FA00017D4C168C943C90613D46FF01001016199
:100FB000082020772068C06910F4407F204602D0C6
:100FC000FFF7ACFE04E000F042F8204600F040F8E5
:100FD000257720680169C943C90708D1C168C94399
:100FE000C90704D1891E0161204600F032F820684B
:100FF0000169C943090609D4C168C943090605D472
:101000006FF0800101612046FFF77EFD20680169D5
:10101000C943490609D4C168C943490605D46FF0DC
:1010200040010161204600F015F820680169C943BC
:1010300089060BD4C168C943890607D46FF0200123
:1010400001612046BDE87040FFF75FBD70BD70478D
:10105000704770477047FEE710B58AB000241A4801
:1010600004940594069407940894099400940194B8
:1010700002944FF080410394016043F67F61C0E920
:1010800001141249C0E903148461FFF787FD4FF48E
:101090008050049004A90C48FFF7D4FD0A48FFF7DC
:1010A000DCFE089408A908480994FFF72FFD0120E9
:1010B000CDE900400F20CDE90240002269460248F8
:1010C000FFF73CFE0AB010BD18000020A08601000A
:1010D000FEE7704770477047FFF7E0B910B594B06E
:1010E00034216846FFF7C2F814210DA8FFF7BEF8B7
:1010F00015480024016841F080510160006800F04B
:10110000805012901148016821F4404141F480411F
:1011100001600068069400F44040129002200090A4
:1011200001200390102004906846FFF737FB0F2042
:10113000CDE90D040F94109400210DA81194FFF730
:1011400047FA14B010BD0000403802400070004063
:101150000548016841F47001016003494FF00060E7
:10116000803908607047000088ED00E00148FFF713
:10117000BBBE000018000020F0B50268254C264DCB
:10118000264E274F274B4FF0804CA04209D0604598
:1011900007D0A84205D0B04203D0B84201D098424F
:1011A00004D122F0700E4A6842EA0E02A0421BD01F
:1011B000604519D0A84217D0B04215D0B84213D01C
:1011C000984211D0184DA8420ED0184DA8420BD00D
:1011D000174DA84208D0174DA84205D0164DA84279
:1011E00002D0164DA84203D122F44075CA682A43A2
:1011F0004D6922F080022A4302608A68C2620A684E
:101200008262A04201D0984201D1096901630121A3
:101210004161F0BD000001400004004000080040B2
:10122000000C004000040140004001400044014027
:101230000048014000180040001C00400020004011
:1012400010B501F01F030121046A99408C43046228
:10125000016A9A401143016210BD10B5846842EAE8
:10126000032224F47F440A432243826010BD826833
:1012700022F070020A4342F007018160704710B506
:10128000036A046A24F001040462846924F0F0040F
:1012900044EA021423F00A020A438461026210BD88
:1012A00070B5046A24F0010404628469056A154E6D
:1012B000B04214D0B0F1804F11D0134EB0420ED0D6
:1012C000124EB0420BD0124EB04208D0114EB04276
:1012D00005D0114EB04202D0104EB04203D124F0DE
:1012E0000304144301E044F001041A0724F0F0045D
:1012F00044EA126225F00A0301F00A0119438261EF
:10130000016270BD00000140000400400008004080
:10131000000C004000040140004001400018004063
:1013200010B5036A23F0100303628369046A23F48F
:10133000704343EA023224F0A00343EA01118261C0
:10134000016210BD30B5046A24F01004046284699F
:10135000056A24F4407444EA022222F470444FF6F1
:10136000FF7202EA03322243A02425F0A00304EA1C
:10137000011119438261016230BDFEE70907090EC0
:10138000002804DB00F1E02080F80014704700F032
:101390000F0000F1E02080F8141D704702E008C83B
:1013A000121F08C1002AFAD170477047002001E0DF
:1013B00001C1121F002AFBD17047000008B5FFF7DA
:1013C00075F8FFF78BFE0A48016841F001010160E2
:1013D000006800F001000090FFF73EFE0021054884
:1013E000FFF757FD034804490068426A0A60FCE7BA
:1013F00030380240180000200000002000000000EB
:101400000000000001020304060708092C1400086C
:1014100000000020180000009C130008441400087D
:101420001800002040040000AC1300080000000079
:10143000000000000100000010000000000000009B
:041440000024F40090
:04000005080001C529
:00000001FF
