:020000040800F2
:1000000068040020D9010008B71000084D1000084E
:10001000B5100008950400086511000800000000F4
:10002000000000000000000000000000BB100008FD
:100030009704000800000000B9100008BD10000877
:10004000F3010008F3010008F3010008F3010008C0
:10005000F3010008F3010008F3010008F3010008B0
:10006000F3010008F3010008F3010008F3010008A0
:10007000F3010008F3010008F3010008F301000890
:10008000F3010008F3010008F3010008F301000880
:10009000F3010008F3010008F3010008F301000870
:1000A000F3010008F3010008F3010008F301000860
:1000B000F3010008F3010008F3010008F301000850
:1000C000F3010008F3010008F3010008F301000840
:1000D000F3010008F3010008F3010008F301000830
:1000E000F3010008F3010008F3010008F301000820
:1000F000F3010008F3010008F3010008F301000810
:10010000F3010008F3010008F3010008F3010008FF
:10011000F3010008F3010008F3010008F3010008EF
:10012000F3010008F3010008F3010008F3010008DF
:10013000F30100080000000000000000F3010008C7
:10014000F3010008F3010008F3010008F3010008BF
:10015000F3010008F3010008F3010008F3010008AF
:10016000F3010008F3010008F3010008F30100089F
:10017000F3010008F3010008F3010008000000008B
:1001800000000000F3010008000000000000000073
:10019000F30100080000000000000000F301000867
:1001A000000000000000000000000000F301000853
:1001B000F3010008F3010008F3010008F30100084F
:1001C000F3010008DFF80CD000F07AF8004800478F
:1001D000A51100086804002006488047064800472B
:1001E000FEE7FEE7FEE7FEE7FEE7FEE7FEE7FEE7E7
:1001F000FEE7FEE749110008C50100082DE9F05FA0
:100200000546002092469B46884606468146402485
:100210001BE0284641464746224600F041F8534637
:100220005A46C01A914110D311461846224600F092
:1002300028F82D1A67EB01084F46224601200021BD
:1002400000F01FF817EB00094E41201EA4F1010435
:10025000DFDC484631462A464346BDE8F09FD2B22D
:1002600001E000F8012B491EFBD270470022F6E79F
:1002700010B513460A4604461946FFF7F0FF20461C
:1002800010BD202A04DB203A00FA02F1002070475A
:100290009140C2F1200320FA03F3194390407047C4
:1002A000202A04DB203A21FA02F00021704721FACB
:1002B00002F3D040C2F12002914008431946704732
:1002C000064C074D06E0E06840F0010394E80700A3
:1002D00098471034AC42F6D3FFF778FFEC110008D2
:1002E0000C12000810B51B491B4800F0E5F9002866
:1002F0002ED1194800F082F9184BA3F10C018A683D
:1003000023F81200521C8A60022A01D10020886062
:100310001348DFED140A008800EE100A5888B8EE82
:10032000400A60EE200A00EE100AB8EE401A80EE95
:10033000810A81ED000A188800EE900AF8EE600A42
:1003400020EE800ADFED080A80EE201A81ED011A06
:1003500010BD000040420F00200000200C000020D3
:100360002A7AFF1F3333534000F07F45464910B5CA
:100370004A6822F440324A604A6843681A434A6035
:1003800001684A6822F480724A6001684A68036919
:1003900042EA03224A6001684A6822F040724A60D9
:1003A00001684A6883681A434A6001688A6822F4CF
:1003B00000628A6001688A68C3681A438A60816A39
:1003C0006FF07062D14201688A6822F070628A60C0
:1003D00001688A680CD0836A1A438A6001688A6857
:1003E00022F040528A6001688A68C36A1A4301E0B9
:1003F00022F040528A6001688A6822F002028A6014
:1004000001688A68037E42EA43028A6090F82010FD
:10041000002901684A680FD042F400624A6001680E
:100420004A6822F460424A6001684A68174C436A8D
:1004300004EB43331A4301E022F400624A6001688E
:10044000CA6A22F47002CA620168CA6A838B104CBD
:1004500004EB03531A43CA6201688A6822F40072EB
:100460008A6001688A6890F8303042EA43228A60E4
:1004700001688A6822F480628A6001688A6840693B
:1004800042EA8020886010BD0023014000E0FFFFA9
:100490000000F0FFFEE7704778B50024009490F864
:1004A0003C20012A19D0012280F83C200A68072349
:1004B0000568092A13D9EE680A3A02EB4202934012
:1004C0009E43EE600B788A680A3B03EB43039A4035
:1004D0000368DD682A43DA6010E0022078BD2E69E7
:1004E00002EB420293409E432E610B788A6803EB35
:1004F00043039A4003681D692A431A614A681F230F
:10050000072A13D205686E6B521E02EB82029340DB
:100510009E436E630A8893B20A79521E02EB8202EE
:1005200093400268556B2B43536327E005680D2AFF
:1005300012D22E6BD21F02EB820293409E432E6397
:100540000B790A88DB1F92B203EB83039A4003689E
:100550001D6B2A431A6311E0EE6A0D3A02EB820228
:1005600093409E43EE620B790A880D3B92B203EBF7
:1005700083039A400368DD6A2A43DA621B4B0568ED
:10058000194A9D420AD10D68122D07D1556825F4EC
:1005900000055560556845F48005556005689D4225
:1005A0001DD1134D0B68AB4201D0112B17D15368ED
:1005B00023F480035360536843F4000353600968D5
:1005C000A9420CD10B490C4A0968B1FBF2F101EBCD
:1005D0008101490000E0491E00910029FBD180F80B
:1005E0003C40002078BD0000002301400020014075
:1005F000120000101C00002040420F000068C06C78
:10060000704770B504004FF0000503D0206C002641
:1006100010B107E0012070BD204600F01DF86664AF
:1006200084F83C60206CC00610D4206C20F4885004
:1006300040F0020020642046FFF798FE6664206CBC
:1006400020F0020040F00100206400E0012584F861
:100650003C60284670BD000010B586B004461421E9
:100660006846FFF703FE1149206888421CD11048F4
:100670000021026842F480720260006800F4807019
:1006800005900B481438026842F0010202600068CD
:1006900000F001000590012000900320CDE9010148
:1006A0006946044800F0D0F806B010BD00200140B3
:1006B00044380240000002402DE9F0410446006841
:1006C0000D4681684FF0000749050BD58068C005CD
:1006D00008D5206C40F02000206484F83C70012094
:1006E000BDE8F08100F084F906460FE0681C0DD0EB
:1006F00025B100F07DF9801BA84207D9206C40F09D
:100700000400206484F83C700320E9E72068006856
:100710008007EBD521686FF012000860206C40F470
:10072000007020642068816811F0405F13D1217E41
:1007300089B9C16A11F4700F02D0806840050AD4EB
:10074000206C20F480702064206CC00403D4206CE2
:1007500040F0010020640020C2E7000018B500212D
:10076000009190F83C20012A07D0012280F83C201B
:1007700002689368DB0702D011E0022018BD93687D
:1007800043F0010393602A4A2A4B1268B2FBF3F24A
:1007900002EB420200E0521E0092002AFBD10268E6
:1007A0009368DB0741D0036C40F20164A34343F438
:1007B0008073036453685B0505D5036C23F4005311
:1007C00043F480530364036CDB0404D5436C23F0CF
:1007D0000603436400E0416480F83C1016496FF062
:1007E0002203136049680068CA06144906D088428B
:1007F0001BD1816811F0405F13D016E08842F8D019
:100800000F4A904203D1D1F80423D206F1D00D4A09
:1008100090420AD1D1F8041301F01F011029E8D346
:1008200003E0816841F080418160002018BD000034
:100830001C00002040420F00002301400020014026
:1008400000210140002201402DE9F84F00224FF025
:10085000010803254FF00F0E0B6808FA02F423403D
:10086000A3426ED14E68012E05D0022E03D0112E68
:1008700001D0122E12D186684FEA420C05FA0CF70D
:10088000BE43CF6807FA0CF7374387604668A64334
:100890000C79C4F30014944034434460C668570094
:1008A00005FA07FC8C6826EA0C06BC403443C46099
:1008B0004C68022C01D0122C13D1D40800EB840414
:1008C000A346D4F8209054074FEAD46A0EFA0AF6E9
:1008D00029EA06090E6906FA0AF646EA0906CBF87D
:1008E000206006680C7926EA0C0604F00304BC407C
:1008F000344304604C68E40060D5334C266846F409
:1009000080462660246822F0030604F480440094A4
:100910002E4C3444A446D4F808489607370F0EFAF4
:1009200007F6B4432A4EB04201D100261FE0294EFB
:10093000B04201D101261AE0274EB04202D1022670
:1009400015E03BE0254EB04201D103260FE0244ED6
:10095000B04201D104260AE0224EB04201D1052660
:1009600005E0214EB04201D1062600E00726BE4038
:100970002643CCF808681D4E34684F689C43FF033B
:1009800000D51C433460194E361D34684F689C43B3
:10099000BF0300D51C433460144E083634684F68DA
:1009A0009C43FF0200D51C433460104E0C36346863
:1009B0004F689C43BF0200D51C433460521C102A70
:1009C000FFF44AAFBDE8F88F4438024000300140E0
:1009D000000002400004024000080240000C0240F7
:1009E000001002400014024000180240003C014088
:1009F00001488068704700001000002002488168AC
:100A00000278114481607047100000200B4810B537
:100A1000016841F400710160016841F48061016086
:100A2000016841F480710160032000F061F800204A
:100A300000F006F800F024F8002010BD003C024051
:100A400070B50D4D04464FF47A712878B1FBF0F083
:100A50000A490968B1FBF0F000F0E4FA48B9102C3B
:100A600007D200222146501E00F022F800206C60C0
:100A700070BD012070BD0000100000201C0000208F
:100A80000A4808B5016841F480410160006800F43B
:100A9000804000900548001F016841F080510160CE
:100AA000006800F08050009008BD0000443802400B
:100AB000F0B40E4B1B680C46C3F30223C3F10705C9
:100AC000042D00D90425191D072901D2002300E0B7
:100AD000DB1E012606FA05F1491E214099409E4081
:100AE000761E16403143F0BC00F03DBB0CED00E03B
:100AF000064900F0070208684FF6FF03184040EA75
:100B00000220034A10430860704700000CED00E02B
:100B10000000FA052DE9F0470E46050065D0DFF824
:100B20001481D8F80000F7B200F00F00B04207D2ED
:100B300088F80070D8F8000000F00F00B04254D1DF
:100B400028683D4C810712D5400703D5206840F442
:100B5000E05020602878000703D5206840F460400A
:100B600020602068A96820F0F00008432060287801
:100B7000C0072DD0304968680839012812D00228F2
:100B800013D0032811D00968890700292DDA2168BC
:100B900021F0030101432160FFF72AFF814641F262
:100BA000883A0EE009688903EFE709688901ECE7F4
:100BB000FFF71EFFA0EB0901514502D90320BDE854
:100BC000F0872068696800F00C00B0EB810FEFD16E
:100BD000D8F80010404601F00F01B14207D9077064
:100BE000006800F00F00B04201D00120E7E728784C
:100BF000400705D52068E96820F4E05008432060EC
:100C00002878000706D52068296920F4604040EA6A
:100C1000C100206000F018F82168084AC1F30311F0
:100C2000515CC8400649086006480068FFF708FFA5
:100C30000020C4E7003C024008380240DC110008F4
:100C40001C00002014000020224810B5006810F09D
:100C50000C02214815D02149042A11D01D4C241F13
:100C6000082A0FD00C2A0CD12268236802F03F0218
:100C70005B0221D52068C0F38810A0FB010120E0B1
:100C8000084610BD2268236802F03F025B0205D5CA
:100C90002068C0F38810A0FB010104E02168C1F3C3
:100CA0008811A1FB00010023FFF7A8FA2168C1F316
:100CB0000141491C49000AE02168C1F38811A1FBE8
:100CC00000010023FFF79AFA2168C1F30271B0FB1B
:100CD000F1F010BD083802400024F40040787D0196
:100CE0002DE9F84F0546DFF828B30078ABF104078B
:100CF000C007A7F1040451D0DBF800105846C1F337
:100D0000810101290FD00168C1F38101022902D1BB
:100D10003968490207D40068C0F38100032809D16B
:100D20003868400206D52068800337D568680028F7
:100D300072D033E06868B0F5803F10D0B0F5A02FD6
:100D4000206810D020F480302060206820F48020BB
:100D500020606868A8B1FFF74BFE06460DE02068EA
:100D600040F48030F4E740F480202060F7E700BFD3
:100D7000FFF73EFE801B642878D820688003F7D5F3
:100D80000CE0FFF735FE064605E000BFFFF730FE3A
:100D9000801B6428F0D820688003F7D42878DFF817
:100DA000749280074FF0000A46D5DBF800105846D1
:100DB00011F00C0F0FD00168C1F38101022902D19B
:100DC0003968490207D50068C0F38100032809D1BA
:100DD0003868400206D42068800715D5E8680128E5
:100DE0001AD111E0E868C0B10120C9F80000FFF78E
:100DF000FFFD064605E000BFFFF7FAFD801B022855
:100E0000BAD820688007F7D52068296920F0F80053
:100E100040EAC10020600FE0F7E0C9F800A0FFF74A
:100E2000E7FD064605E000BFFFF7E2FD801B022854
:100E30001CD820688007F7D42878000727D5DFF86A
:100E4000D0817548696908F16C0881B101210160A0
:100E5000FFF7CEFD064604E0FFF7CAFD801B02281F
:100E600004D8D8F800008007F6D510E089E0C0F873
:100E700000A0FFF7BDFD064605E000BFFFF7B8FD87
:100E8000801B02287DD8D8F800008007F6D4287887
:100E9000400769D55E484FF0000838300068C00050
:100EA0000BD45B483830016841F080510160006824
:100EB0004FF0010800F080500090584E3068C00597
:100EC00011D4306840F480703060FFF791FD0090DD
:100ED00006E000BFFFF78CFD0099401A022850D8A9
:100EE0003068C005F6D54A4EA868683601280FD08C
:100EF0000528306810D020F001003060306820F004
:100F000004003060A868B8B1FFF772FD00900FE0F0
:100F1000306840F00100F4E740F004003060F7E78B
:100F2000FFF766FD0099411A41F28830814264D88A
:100F300030688007F4D50EE0FFF75AFD009007E017
:100F4000FFF756FD0099411A41F28830814254D88A
:100F500030688007F4D4B8F1000F05D02C48383041
:100F6000016821F080510160A869A8B3DBF8001086
:100F7000C1F38101022948D00228C9F860A005D038
:100F800000E03AE0FFF734FD054639E0FFF730FDB9
:100F9000064604E0FFF72CFD801B02282DD82068B0
:100FA0008001F7D4F5E907010843E9681C4A4908BC
:100FB00002EB0141AA6841EA82110843297C40EA18
:100FC0000160297D40EA017038600120C9F86000A5
:100FD000FFF70EFD054606E015E000BFFFF708FD30
:100FE000401B022809D820688001F7D50BE000BF1C
:100FF000FFF7FEFC401B022802D90320BDE8F88F52
:1010000020688001F4D40020F8E70120F6E7000012
:101010000838024000004742800E474200700040FE
:101020000000FFFF10B5401EB0F1807F01D301200A
:1010300010BD4FF0E02460610F21601700F093F8BD
:101040000020A06107202061002010BDFEE7000005
:101050007FB500241548009401940294124903942A
:10106000C0E90014012505618460057680F8204000
:101070000F49C0E90A140226C661C46080F83040F6
:101080004561FFF7BEFA06200094CDE9015069469C
:101090000648FFF701FA1120CDE90006694603482A
:1010A000FFF7FAF97FBD000000200140200000207A
:1010B0000100000FFEE7704770477047FFF79EBCC6
:1010C00030B593B034216846FFF7D0F814210DA84D
:1010D000FFF7CCF81A480025016841F08051016003
:1010E000006800F0805012901648016821F44041D9
:1010F00041F4804101600068022400F440401290F5
:101100000120039010200490009406940820CDE95B
:1011100007507820CDE909040B9468460C94FFF73A
:10112000DFFD0DA90F2081E831004FF4A050109091
:10113000E002119003210DA8FFF7ECFC13B030BDC5
:1011400040380240007000400548016841F47001D9
:10115000016003494FF0006080390860704700006B
:1011600088ED00E0FEE70907090E002804DB00F126
:10117000E02080F80014704700F00F0000F1E0203C
:1011800080F8141D704702E008C8121F08C1002A29
:10119000FAD170477047002001E001C1121F002AF8
:1011A000FBD1704708B5FFF731FCFFF789FF09480D
:1011B000016841F001010160006800F00100009049
:1011C000FFF746FF0448FFF7C9FA00BFFFF78AF8A8
:1011D000FCE7000030380240200000200000000042
:1011E0000000000001020304060708090C120008B1
:1011F0000000002020000000861100082C120008CA
:1012000020000020480400009611000800000000A3
:1012100000000000000000000000000001000000CD
:0C12200010000000000000000024F4009A
:04000005080001C529
:00000001FF
