:020000040800F2
:1000000098040020D90100083F0C0008910B00085B
:100010003D0C0008E5020008910E000800000000F9
:10002000000000000000000000000000430C000879
:10003000E702000800000000410C0008450C000821
:10004000F3010008F3010008F3010008F3010008C0
:10005000F3010008F3010008F3010008F3010008B0
:10006000F3010008F3010008F3010008F3010008A0
:10007000F3010008F3010008F3010008F301000890
:10008000F3010008F3010008F3010008F301000880
:10009000F3010008F3010008F3010008F301000870
:1000A000F3010008F3010008F3010008F301000860
:1000B000F3010008F3010008F3010008F301000850
:1000C000F3010008F3010008F3010008F301000840
:1000D000F3010008F3010008F3010008F301000830
:1000E000F3010008F3010008F3010008F301000820
:1000F000F3010008F3010008F3010008F301000810
:10010000F3010008F3010008F3010008F3010008FF
:10011000F3010008F3010008F3010008F3010008EF
:10012000F3010008F3010008F3010008F3010008DF
:10013000F30100080000000000000000F3010008C7
:10014000F3010008F3010008F3010008F3010008BF
:10015000F3010008F3010008F3010008F3010008AF
:10016000F3010008F3010008F3010008F30100089F
:10017000F3010008F3010008F3010008000000008B
:1001800000000000F3010008000000000000000073
:10019000F30100080000000000000000F301000867
:1001A000000000000000000000000000F301000853
:1001B000F3010008F3010008F3010008F30100084F
:1001C000F3010008DFF80CD000F07AF8004800478F
:1001D000D10E0008980400200648804706480047D2
:1001E000FEE7FEE7FEE7FEE7FEE7FEE7FEE7FEE7E7
:1001F000FEE7FEE7BD0C0008C50100082DE9F05F31
:100200000546002092469B46884606468146402485
:100210001BE0284641464746224600F041F8534637
:100220005A46C01A914110D311461846224600F092
:1002300028F82D1A67EB01084F46224601200021BD
:1002400000F01FF817EB00094E41201EA4F1010435
:10025000DFDC484631462A464346BDE8F09FD2B22D
:1002600001E000F8012B491EFBD270470022F6E79F
:1002700010B513460A4604461946FFF7F0FF20461C
:1002800010BD202A04DB203A00FA02F1002070475A
:100290009140C2F1200320FA03F3194390407047C4
:1002A000202A04DB203A21FA02F00021704721FACB
:1002B00002F3D040C2F12002914008431946704732
:1002C000064C074D06E0E06840F0010394E80700A3
:1002D00098471034AC42F6D3FFF778FF1C0F0008A4
:1002E0003C0F0008FEE77047014880687047000037
:1002F0000400002002488168027811448160704740
:10030000040000200B4810B5016841F40071016041
:10031000016841F480610160016841F4807101600D
:10032000032000F061F8002000F006F800F024F847
:10033000002010BD003C024070B50D4D04464FF446
:100340007A712878B1FBF0F00A490968B1FBF0F046
:1003500000F0E4FA48B9102C07D200222146501EC2
:1003600000F022F800206C6070BD012070BD00001C
:1003700004000020100000200A4808B5016841F47C
:1003800080410160006800F4804000900548001F33
:10039000016841F080510160006800F080500090D9
:1003A00008BD000044380240F0B40E4B1B680C46F8
:1003B000C3F30223C3F10705042D00D90425191D39
:1003C000072901D2002300E0DB1E012606FA05F111
:1003D000491E214099409E40761E16403143F0BC94
:1003E00000F057BD0CED00E0064900F00702086878
:1003F0004FF6FF03184040EA0220034A104308600A
:10040000704700000CED00E00000FA052DE9F04710
:100410000E46050065D0DFF81481D8F80000F7B269
:1004200000F00F00B04207D288F80070D8F8000042
:1004300000F00F00B04254D128683D4C810712D51E
:10044000400703D5206840F4E0502060287800077A
:1004500003D5206840F4604020602068A96820F03F
:10046000F000084320602878C0072DD03049686824
:100470000839012812D0022813D0032811D00968A6
:10048000890700292DDA216821F003010143216049
:10049000FFF72AFF814641F2883A0EE00968890396
:1004A000EFE709688901ECE7FFF71EFFA0EB090100
:1004B000514502D90320BDE8F0872068696800F043
:1004C0000C00B0EB810FEFD1D8F80010404601F0DE
:1004D0000F01B14207D90770006800F00F00B04269
:1004E00001D00120E7E72878400705D52068E968B2
:1004F00020F4E050084320602878000706D52068E3
:10050000296920F4604040EAC100206000F018F83A
:100510002168084AC1F30311515CC84006490860CC
:1005200006480068FFF708FF0020C4E7003C0240CF
:10053000083802400C0F00081000002008000020BE
:10054000224810B5006810F00C02214815D021494E
:10055000042A11D01D4C241F082A0FD00C2A0CD1BC
:100560002268236802F03F025B0221D52068C0F3B5
:100570008810A0FB010120E0084610BD2268236816
:1005800002F03F025B0205D52068C0F38810A0FB93
:10059000010104E02168C1F38811A1FB00010023DF
:1005A000FFF72CFE2168C1F30141491C49000AE014
:1005B0002168C1F38811A1FB00010023FFF71EFE93
:1005C0002168C1F30271B0FBF1F010BD08380240A0
:1005D0000024F40040787D012DE9F84F0546DFF84E
:1005E00028B30078ABF10407C007A7F1040451D089
:1005F000DBF800105846C1F3810101290FD00168D2
:10060000C1F38101022902D13968490207D4006887
:10061000C0F38100032809D13868400206D520685C
:10062000800337D56868002872D033E06868B0F579
:10063000803F10D0B0F5A02F206810D020F480307B
:100640002060206820F4802020606868A8B1FFF74F
:100650004BFE06460DE0206840F48030F4E740F49D
:1006600080202060F7E700BFFFF73EFE801B642874
:1006700078D820688003F7D50CE0FFF735FE0646F2
:1006800005E000BFFFF730FE801B6428F0D820682B
:100690008003F7D42878DFF8749280074FF0000ABF
:1006A00046D5DBF80010584611F00C0F0FD001684A
:1006B000C1F38101022902D13968490207D50068D6
:1006C000C0F38100032809D13868400206D42068AD
:1006D000800715D5E86801281AD111E0E868C0B193
:1006E0000120C9F80000FFF7FFFD064605E000BF46
:1006F000FFF7FAFD801B0228BAD820688007F7D5DB
:100700002068296920F0F80040EAC10020600FE06D
:10071000F7E0C9F800A0FFF7E7FD064605E000BFD7
:10072000FFF7E2FD801B02281CD820688007F7D461
:100730002878000727D5DFF8D0817548696908F166
:100740006C0881B101210160FFF7CEFD064604E08F
:10075000FFF7CAFD801B022804D8D8F800008007E4
:10076000F6D510E089E0C0F800A0FFF7BDFD064611
:1007700005E000BFFFF7B8FD801B02287DD8D8F840
:1007800000008007F6D42878400769D55E484FF00E
:10079000000838300068C0000BD45B48383001686E
:1007A00041F08051016000684FF0010800F0805076
:1007B0000090584E3068C00511D4306840F4807005
:1007C0003060FFF791FD009006E000BFFFF78CFD61
:1007D0000099401A022850D83068C005F6D54A4E14
:1007E000A868683601280FD00528306810D020F09E
:1007F00001003060306820F004003060A868B8B1B3
:10080000FFF772FD00900FE0306840F00100F4E760
:1008100040F004003060F7E7FFF766FD0099411AE9
:1008200041F28830814264D830688007F4D50EE008
:10083000FFF75AFD009007E0FFF756FD0099411AB7
:1008400041F28830814254D830688007F4D4B8F13E
:10085000000F05D02C483830016821F0805101602C
:10086000A869A8B3DBF80010C1F38101022948D0C0
:100870000228C9F860A005D000E03AE0FFF734FD97
:10088000054639E0FFF730FD064604E0FFF72CFD92
:10089000801B02282DD820688001F7D4F5E90701D4
:1008A0000843E9681C4A490802EB0141AA6841EA89
:1008B00082110843297C40EA0160297D40EA0170E9
:1008C00038600120C9F86000FFF70EFD054606E01C
:1008D00015E000BFFFF708FD401B022809D820687B
:1008E0008001F7D50BE000BFFFF7FEFC401B02289C
:1008F00002D90320BDE8F88F20688001F4D40020DD
:10090000F8E70120F6E700000838024000004742FF
:10091000800E4742007000400000FFFF10B5401EEF
:10092000B0F1807F01D3012010BD4FF0E024606161
:100930000F21601700F0ADFA0020A06107202061B0
:10094000002010BD70B590F83C20012A32D001245F
:1009500080F83C40022280F83D2003685A689D6878
:1009600022F070060A6832435A60134B02689A42BA
:1009700014D0B2F1804F11D0104B9A420ED0104BD0
:100980009A420BD00F4B9A4208D00F4B9A4205D097
:100990000E4B9A4202D00E4B9A4204D1496825F080
:1009A00080031943916080F83D40002180F83C109D
:1009B000084670BD022070BD0000014000040040E8
:1009C00000080040000C00400004014000400140CD
:1009D0000018004010B5040003D094F83D0010B199
:1009E00007E0012010BD002084F83C00204600F004
:1009F0000DF8022084F83D00211D206800F06CF9FC
:100A0000012084F83D00002010BD000008B50068FA
:100A10000949884201D1094804E0B0F1804F09D169
:100A20000648001F016841F001010160006800F004
:100A30000100009008BD0000000001404438024061
:100A4000022180F83D1001688A6802F00702062A38
:100A500003D00A6842F001020A60012180F83D10CB
:100A60000020704770B5044690F83C00012817D06C
:100A7000012584F83C50022084F83D0020688268FB
:100A800022F0770222F47F4282600868502830D03A
:100A90000DDC20284DD005DC98B310283BD148E070
:100AA000022070BD302844D0402834D139E060287D
:100AB00028D0702806D0B0F5805F2CD0B0F5005F4C
:100AC00029D10AE0CB68D1E90121206800F068F95A
:100AD0002068816841F0770109E0CB68D1E9012104
:100AE000206800F05DF92068816841F480418160F0
:100AF00011E0CA684968206800F0A7F95021206811
:100B000007E016E0CA684968206800F0AFF9602184
:100B1000206800F04FF984F83D50002084F83C0034
:100B200070BDCA684968206800F08FF940212068CC
:100B3000EFE7226801461046EBE770B5044690F8EF
:100B40003C00012812D0012584F83C50022084F892
:100B50003D00204600F036F901004FF0000007D0BC
:100B600084F83D5084F83C00012070BD022070BD27
:100B70002168CA6822F04002CA602168CA6822F46B
:100B80008042CA6084F83D5084F83C00002070BD6B
:100B9000FEE7000000B587B00021134800910191E5
:100BA0000291039104910F4A0591026043F67F621E
:100BB000C0E901211211C0E9032141618161FFF700
:100BC00009FF4FF48050009069460748FFF74AFF3D
:100BD000202004908020059004A90348FFF7B2FE6E
:100BE00007B000BD000001401400002010B588B01F
:100BF00014216846FFF73AFB00240F4805944FF094
:100C000080410694C0E900144FF47A71C0E90241B2
:100C100004618461FFF7DEFE0720CDE90004694628
:100C20000548FFF78AFF059405A903480694FFF7D6
:100C300089FE08B010BD000054000020FEE7704798
:100C400070477047FFF756BB10B594B03421684623
:100C5000FFF70CFB14210DA8FFF708FB1548002433
:100C6000016841F080510160006800F080501290EE
:100C70001148016821F4404141F48041016000685D
:100C8000069400F44040129002200090012003904E
:100C9000102004906846FFF79FFC0F20CDE90D045B
:100CA0000F94109400210DA81194FFF7AFFB14B01E
:100CB00010BD000040380240007000400548016847
:100CC00041F47001016003494FF000608039086011
:100CD0007047000088ED00E0F0B50268254C264D15
:100CE000264E274F274B4FF0804CA04209D060453D
:100CF00007D0A84205D0B04203D0B84201D09842F4
:100D000004D122F0700E4A6842EA0E02A0421BD0C3
:100D1000604519D0A84217D0B04215D0B84213D0C0
:100D2000984211D0184DA8420ED0184DA8420BD0B1
:100D3000174DA84208D0174DA84205D0164DA8421D
:100D400002D0164DA84203D122F44075CA682A4346
:100D50004D6922F080022A4302608A68C2620A68F2
:100D60008262A04201D0984201D109690163012148
:100D70004161F0BD00000140000400400008004057
:100D8000000C0040000401400040014000440140CC
:100D90000048014000180040001C004000200040B6
:100DA00010B5846842EA032224F47F440A432243B4
:100DB000826010BD826822F070020A4342F007018F
:100DC0008160704710B503689A6822F070044A6821
:100DD000224322F007040A6822439A604A6812F00C
:100DE0000F0F30D11211082A2DD2DFE802F02C2C7F
:100DF0002C2C0B2127040B69D1E902210068FFF795
:100E0000CFFF20E00A68052A10D00268136A146A2E
:100E100024F00104146202689469096924F0F00462
:100E200044EA01119161006803620CE0012010BDE9
:100E30000A698968006800F008F804E00A698968AE
:100E4000006800F013F8002010BD10B5036A046AB2
:100E500024F001040462846924F0F00444EA0214DA
:100E600023F00A020A438461026210BD10B5036ACE
:100E700023F0100303628369046A23F4704343EA96
:100E8000023224F0A00343EA01118261016210BD25
:100E9000FEE70907090E002804DB00F1E02080F8D6
:100EA0000014704700F00F0000F1E02080F8141DDE
:100EB000704702E008C8121F08C1002AFAD1704723
:100EC0007047002001E001C1121F002AFBD17047CA
:100ED000FFF718FAFFF7B8FEFFF788FEFFF75AFE94
:100EE0000848FFF7ADFD07484030FFF7A9FD054A68
:100EF000054802F1400112680968536A03804B6A91
:100F00004380FAE7140000200000002000000000E9
:100F10000000000001020304060708093C0F000856
:100F20000000002014000000B20E0008500F00085E
:100F30001400002084040000C20E0008000000001D
:100F40000100000010000000000000000024F40078
:04000005080001C529
:00000001FF
