:020000040800F2
:1000000050040020D9010008E70E00088D0E0008FA
:10001000E50E0008E5020008E310000800000000FB
:10002000000000000000000000000000EB0E0008CF
:10003000E702000800000000E90E0008ED0E0008CD
:10004000F3010008F3010008F3010008F3010008C0
:10005000F3010008F3010008F3010008F3010008B0
:10006000F3010008F3010008F3010008F3010008A0
:10007000F3010008F3010008F3010008F301000890
:10008000F3010008F3010008F3010008F301000880
:10009000F3010008F3010008F3010008F301000870
:1000A000F3010008F3010008F3010008F301000860
:1000B000950F0008F3010008F3010008F3010008A0
:1000C000F3010008F3010008F3010008F301000840
:1000D000F3010008F3010008F3010008F301000830
:1000E000F3010008F3010008F3010008F301000820
:1000F000F3010008F3010008F3010008F301000810
:10010000F3010008F3010008F3010008F3010008FF
:10011000F3010008F3010008F3010008F3010008EF
:10012000F3010008F3010008F3010008F3010008DF
:10013000F30100080000000000000000F3010008C7
:10014000F3010008F3010008F3010008F3010008BF
:10015000F3010008F3010008F3010008F3010008AF
:10016000F3010008F3010008F3010008F30100089F
:10017000F3010008F3010008F3010008000000008B
:1001800000000000F3010008000000000000000073
:10019000F30100080000000000000000F301000867
:1001A000000000000000000000000000F301000853
:1001B000F3010008F3010008F3010008F30100084F
:1001C000F3010008DFF80CD000F07AF8004800478F
:1001D00025110008500400200648804706480047C3
:1001E000FEE7FEE7FEE7FEE7FEE7FEE7FEE7FEE7E7
:1001F000FEE7FEE7790F0008C50100082DE9F05F72
:100200000546002092469B46884606468146402485
:100210001BE0284641464746224600F041F8534637
:100220005A46C01A914110D311461846224600F092
:1002300028F82D1A67EB01084F46224601200021BD
:1002400000F01FF817EB00094E41201EA4F1010435
:10025000DFDC484631462A464346BDE8F09FD2B22D
:1002600001E000F8012B491EFBD270470022F6E79F
:1002700010B513460A4604461946FFF7F0FF20461C
:1002800010BD202A04DB203A00FA02F1002070475A
:100290009140C2F1200320FA03F3194390407047C4
:1002A000202A04DB203A21FA02F00021704721FACB
:1002B00002F3D040C2F12002914008431946704732
:1002C000064C074D06E0E06840F0010394E80700A3
:1002D00098471034AC42F6D3FFF778FF901100082E
:1002E000B0110008FEE770472DE9F84F00224FF0EB
:1002F000010803254FF00F0E0B6808FA02F42340A3
:10030000A3426ED14E68012E05D0022E03D0112ECD
:1003100001D0122E12D186684FEA420C05FA0CF772
:10032000BE43CF6807FA0CF7374387604668A64399
:100330000C79C4F30014944034434460C6685700F9
:1003400005FA07FC8C6826EA0C06BC403443C460FE
:100350004C68022C01D0122C13D1D40800EB840479
:10036000A346D4F8209054074FEAD46A0EFA0AF64E
:1003700029EA06090E6906FA0AF646EA0906CBF8E2
:10038000206006680C7926EA0C0604F00304BC40E1
:10039000344304604C68E40060D5334C266846F46E
:1003A00080462660246822F0030604F4804400940A
:1003B0002E4C3444A446D4F808489607370F0EFA5A
:1003C00007F6B4432A4EB04201D100261FE0294E61
:1003D000B04201D101261AE0274EB04202D10226D6
:1003E00015E03BE0254EB04201D103260FE0244E3C
:1003F000B04201D104260AE0224EB04201D10526C6
:1004000005E0214EB04201D1062600E00726BE409D
:100410002643CCF808681D4E34684F689C43FF03A0
:1004200000D51C433460194E361D34684F689C4318
:10043000BF0300D51C433460144E083634684F683F
:100440009C43FF0200D51C433460104E0C363468C8
:100450004F689C43BF0200D51C433460521C102AD5
:10046000FFF44AAFBDE8F88F443802400030014045
:10047000000002400004024000080240000C02405C
:10048000001002400014024000180240003C0140ED
:10049000426931EA020200D10904816170470AB160
:1004A000816170470904FBE70148806870470000DC
:1004B0000000002002488168027811448160704782
:1004C000000000200B4810B5016841F40071016084
:1004D000016841F480610160016841F4807101604C
:1004E000032000F06FF8002000F006F800F024F878
:1004F000002010BD003C024070B50D4D04464FF485
:100500007A712878B1FBF0F00A490968B1FBF0F084
:1005100000F0F2FA48B9102C07D200222146501EF2
:1005200000F030F800206C6070BD012070BD00004C
:10053000000000200C0000200A4808B5016841F4C2
:1005400080410160006800F4804000900548001F71
:10055000016841F080510160006800F08050009017
:1005600008BD000044380240002809DB00F01F02EB
:10057000012191404009800000F1E020C0F8001105
:1005800070470000F0B40E4B1B680C46C3F3022307
:10059000C3F10705042D00D90425191D072901D22F
:1005A000002300E0DB1E012606FA05F1491E21406A
:1005B00099409E40761E16403143F0BC00F092BD3B
:1005C0000CED00E0064900F0070208684FF6FF0353
:1005D000184040EA0220034A1043086070470000B8
:1005E0000CED00E00000FA052DE9F0470E4605008D
:1005F00065D0DFF81481D8F80000F7B200F00F00E2
:10060000B04207D288F80070D8F8000000F00F0060
:10061000B04254D128683D4C810712D5400703D51C
:10062000206840F4E05020602878000703D5206857
:1006300040F4604020602068A96820F0F000084382
:1006400020602878C0072DD0304968680839012813
:1006500012D0022813D0032811D009688907002975
:100660002DDA216821F0030101432160FFF71CFF0F
:10067000814641F2883A0EE009688903EFE709688C
:100680008901ECE7FFF710FFA0EB0901514502D902
:100690000320BDE8F0872068696800F00C00B0EB2B
:1006A000810FEFD1D8F80010404601F00F01B142A0
:1006B00007D90770006800F00F00B04201D0012098
:1006C000E7E72878400705D52068E96820F4E0507E
:1006D000084320602878000706D52068296920F49F
:1006E000604040EAC100206000F018F82168084A24
:1006F000C1F30311515CC840064908600648006810
:10070000FFF7FAFE0020C4E7003C02400838024030
:10071000801100080C00002004000020224810B5C1
:10072000006810F00C02214815D02149042A11D08C
:100730001D4C241F082A0FD00C2A0CD122682368D4
:1007400002F03F025B0221D52068C0F38810A0FBB5
:10075000010120E0084610BD2268236802F03F0234
:100760005B0205D52068C0F38810A0FB010104E0FE
:100770002168C1F38811A1FB00010023FFF73EFDB2
:100780002168C1F30141491C49000AE02168C1F315
:100790008811A1FB00010023FFF730FD2168C1F3A0
:1007A0000271B0FBF1F010BD083802400024F400E3
:1007B00040787D012DE9F84F0546DFF828B3007831
:1007C000ABF10407C007A7F1040451D0DBF8001017
:1007D0005846C1F3810101290FD00168C1F381019D
:1007E000022902D13968490207D40068C0F38100A8
:1007F000032809D13868400206D52068800337D520
:100800006868002872D033E06868B0F5803F10D087
:10081000B0F5A02F206810D020F480302060206830
:1008200020F4802020606868A8B1FFF73DFE0646EE
:100830000DE0206840F48030F4E740F48020206030
:10084000F7E700BFFFF730FE801B642878D82068E8
:100850008003F7D50CE0FFF727FE064605E000BF52
:10086000FFF722FE801B6428F0D820688003F7D4AD
:100870002878DFF8749280074FF0000A46D5DBF83D
:100880000010584611F00C0F0FD00168C1F3810120
:10089000022902D13968490207D50068C0F38100F6
:1008A000032809D13868400206D42068800715D58E
:1008B000E86801281AD111E0E868C0B10120C9F840
:1008C0000000FFF7F1FD064605E000BFFFF7ECFD75
:1008D000801B0228BAD820688007F7D520682969CC
:1008E00020F0F80040EAC10020600FE0F7E0C9F80E
:1008F00000A0FFF7D9FD064605E000BFFFF7D4FDD5
:10090000801B02281CD820688007F7D428780007AD
:1009100027D5DFF8D0817548696908F16C0881B185
:1009200001210160FFF7C0FD064604E0FFF7BCFDB2
:10093000801B022804D8D8F800008007F6D510E004
:1009400089E0C0F800A0FFF7AFFD064605E000BF54
:10095000FFF7AAFD801B02287DD8D8F80000800789
:10096000F6D42878400769D55E484FF00008383043
:100970000068C0000BD45B483830016841F08051FA
:10098000016000684FF0010800F080500090584E60
:100990003068C00511D4306840F480703060FFF7D3
:1009A00083FD009006E000BFFFF77EFD0099401A2E
:1009B000022850D83068C005F6D54A4EA868683677
:1009C00001280FD00528306810D020F001003060D9
:1009D000306820F004003060A868B8B1FFF764FD0B
:1009E00000900FE0306840F00100F4E740F00400B0
:1009F0003060F7E7FFF758FD0099411A41F288305F
:100A0000814264D830688007F4D50EE0FFF74CFDD2
:100A1000009007E0FFF748FD0099411A41F2883045
:100A2000814254D830688007F4D4B8F1000F05D063
:100A30002C483830016821F080510160A869A8B3C2
:100A4000DBF80010C1F38101022948D00228C9F85F
:100A500060A005D000E03AE0FFF726FD054639E04A
:100A6000FFF722FD064604E0FFF71EFD801B02286B
:100A70002DD820688001F7D4F5E907010843E9681B
:100A80001C4A490802EB0141AA6841EA8211084365
:100A9000297C40EA0160297D40EA0170386001202C
:100AA000C9F86000FFF700FD054606E015E000BF4D
:100AB000FFF7FAFC401B022809D820688001F7D50F
:100AC0000BE000BFFFF7F0FC401B022802D9032017
:100AD000BDE8F88F20688001F4D40020F8E70120F9
:100AE000F6E700000838024000004742800E474207
:100AF000007000400000FFFF10B5401EB0F1807F85
:100B000001D3012010BD4FF0E02460610F21601778
:100B100000F0E8FA0020A06107202061002010BD4D
:100B20007047704770B590F83C20012A32D00124FC
:100B300080F83C40022280F83D2003685A689D6896
:100B400022F070060A6832435A60134B02689A42D8
:100B500014D0B2F1804F11D0104B9A420ED0104BEE
:100B60009A420BD00F4B9A4208D00F4B9A4205D0B5
:100B70000E4B9A4202D00E4B9A4204D1496825F09E
:100B800080031943916080F83D40002180F83C10BB
:100B9000084670BD022070BD000001400004004006
:100BA00000080040000C00400004014000400140EB
:100BB0000018004010B5040003D094F83D0010B1B7
:100BC00007E0012010BD002084F83C00204600F022
:100BD0000DF8022084F83D00211D206800F0E8F99E
:100BE000012084F83D00002010BD000008B5006819
:100BF000B0F1804F12D10A48016841F00101016053
:100C00000068002200F00100009011461C20FFF750
:100C1000B9FCBDE808401C20FFF7A6BC08BD0000D9
:100C2000403802400168CA6842F00102CA600068A8
:100C3000816801F00701062903D0016841F0010134
:100C400001600020704770B5044690F83C00012810
:100C500017D0012584F83C50022084F83D0020681C
:100C6000826822F0770222F47F428260086850286E
:100C700030D00DDC20284DD005DC98B310283BD1B6
:100C800048E0022070BD302844D0402834D139E0FB
:100C9000602828D0702806D0B0F5805F2CD0B0F541
:100CA000005F29D10AE0CB68D1E90121206800F07A
:100CB000E3F92068816841F0770109E0CB68D1E968
:100CC0000121206800F0D8F92068816841F4804152
:100CD000816011E0CA684968206800F0DFF950219E
:100CE000206807E016E0CA684968206800F0E7F964
:100CF0006021206800F0CAF984F83D50002084F893
:100D00003C0070BDCA684968206800F0C7F94021FE
:100D10002068EFE7226801461046EBE7704770B5A0
:100D20000446006801694FF00005C943890715D4DE
:100D3000C168C943890711D4E91E016101202077E8
:100D4000206880698007204602D0FFF7E7FF04E0B3
:100D500000F098F8204600F096F8257720680169A1
:100D6000C943490717D4C168C943490713D46FF071
:100D700004010161022020772068806910F4407F1F
:100D8000204602D0FFF7CAFF04E000F07BF82046BF
:100D900000F079F8257720680169C943090716D45E
:100DA000C168C943090712D46FF00801016104202A
:100DB00020772068C0698007204602D0FFF7AEFF89
:100DC00004E000F05FF8204600F05DF82577206829
:100DD0000169C943C90617D4C168C943C90613D4F8
:100DE0006FF010010161082020772068C06910F4BD
:100DF000407F204602D0FFF791FF04E000F042F868
:100E0000204600F040F8257720680169C943C907EA
:100E100008D1C168C943C90704D1891E01612046B0
:100E200000F032F820680169C943090609D4C16895
:100E3000C943090605D46FF0800101612046FFF720
:100E40006FFE20680169C943490609D4C168C943D6
:100E5000490605D46FF040010161204600F015F805
:100E600020680169C94389060BD4C168C943890652
:100E700007D46FF0200101612046BDE87040FFF704
:100E800050BE70BD7047704770477047FEE7000066
:100E900010B586B000241248009401940294039483
:100EA00004944FF08041059401604BF67F31C0E916
:100EB000011440F2E731C0E903148461FFF77AFEC0
:100EC0004FF48050009069460548FFF7BCFE04943B
:100ED00004A903480594FFF725FE06B010BD0000E5
:100EE00010000020FEE7704770477047FFF7E2BA36
:100EF00030B593B034216846FFF7B8F914210DA836
:100F0000FFF7B4F91A480025016841F080510160EB
:100F1000006800F0805012901648016821F44041AA
:100F200041F4804101600068022400F440401290C6
:100F30000120039010200490009406940820CDE92D
:100F400007506020CDE909040B9468460C94FFF724
:100F500031FC0F20CDE90D0480200F904001CDE938
:100F6000100501210DA8FFF73FFB13B030BD0000B5
:100F700040380240007000400548016841F47001AB
:100F8000016003494FF0006080390860704700003D
:100F900088ED00E010B50448FFF7C1FEBDE8104041
:100FA00020210248FFF774BA100000200000024020
:100FB000F0B50268254C264D264E274F274B4FF0A3
:100FC000804CA04209D0604507D0A84205D0B0426D
:100FD00003D0B84201D0984204D122F0700E4A6882
:100FE00042EA0E02A0421BD0604519D0A84217D099
:100FF000B04215D0B84213D0984211D0184DA84233
:101000000ED0184DA8420BD0174DA84208D0174D4E
:10101000A84205D0164DA84202D0164DA84203D1D1
:1010200022F44075CA682A434D6922F080022A439F
:1010300002608A68C2620A688262A04201D0984255
:1010400001D10969016301214161F0BD0000014046
:101050000004004000080040000C00400004014073
:101060000040014000440140004801400018004099
:10107000001C00400020004010B5846842EA0322B2
:1010800024F47F440A432243826010BD826822F028
:1010900070020A4342F007018160704710B5036A8D
:1010A000046A24F001040462846924F0F00444EA30
:1010B000021423F00A020A438461026210BD10B5D3
:1010C000036A23F0100303628369046A23F4704304
:1010D00043EA023224F0A00343EA01118261016273
:1010E00010BDFEE70907090E002804DB00F1E0202F
:1010F00080F80014704700F00F0000F1E02080F845
:10110000141D704702E008C8121F08C1002AFAD156
:1011100070477047002001E001C1121F002AFBD177
:101120007047000086B0FFF7CDF9FFF7E1FE14210C
:101130006846FFF79BF80F480024016841F0010161
:10114000016000680C4D00F001000590224620214E
:101150002846FFF7A4F9202001218DE81300039110
:1011600069462846FFF7C0F8FFF792FE0348FFF7ED
:1011700059FDFEE730380240000002401000002018
:101180000000000000000000010203040607080937
:10119000B011000800000020100000000411000839
:1011A000C0110008100000204004000014110008C5
:1011B0000100000010000000000000000024F40006
:04000005080001C529
:00000001FF
