:020000040800F2
:1000000078040020D90100080B150008AD14000881
:1000100009150008A5070008B51500080000000034
:100020000000000000000000000000000F150008A4
:10003000A7070008000000000D15000811150008B2
:10004000F3010008F3010008F3010008F3010008C0
:10005000F3010008F3010008F3010008F3010008B0
:10006000F3010008F3010008F3010008F3010008A0
:10007000F3010008F3010008F3010008F301000890
:10008000F3010008F3010008F3010008F301000880
:10009000F3010008F3010008F3010008F301000870
:1000A000F3010008F3010008F3010008F301000860
:1000B000F3010008F3010008F3010008F301000850
:1000C000F3010008F3010008F3010008F301000840
:1000D000F3010008F3010008F3010008F301000830
:1000E000F3010008F3010008F3010008F301000820
:1000F000F3010008F3010008F3010008F301000810
:10010000F3010008F3010008F3010008F3010008FF
:10011000F3010008F3010008F3010008F3010008EF
:10012000F3010008F3010008F3010008F3010008DF
:10013000F30100080000000000000000F3010008C7
:10014000F3010008F3010008F3010008F3010008BF
:10015000F3010008F3010008F3010008F3010008AF
:10016000F3010008F3010008F3010008F30100089F
:10017000F3010008F3010008F3010008000000008B
:1001800000000000F3010008000000000000000073
:10019000F30100080000000000000000F301000867
:1001A000000000000000000000000000F301000853
:1001B000F3010008F3010008F3010008F30100084F
:1001C000F3010008DFF80CD000F018FA00480047EF
:1001D000F5150008780400200648804706480047C7
:1001E000FEE7FEE7FEE7FEE7FEE7FEE7FEE7FEE7E7
:1001F000FEE7FEE799150008C50100082DE9F05F4C
:100200000546002092469B46884606468146402485
:100210001BE0284641464746224600F04BF953462C
:100220005A46C01A914110D311461846224600F092
:1002300032F92D1A67EB01084F46224601200021B2
:1002400000F029F917EB00094E41201EA4F101042A
:10025000DFDC484631462A464346BDE8F09FD2B22D
:1002600001E000F8012B491EFBD270470022F6E79F
:1002700010B513460A4604461946FFF7F0FF20461C
:1002800010BD2DE9FE4F81EA030404F0004421F083
:10029000004100944FF0000B23F0004350EA0104AA
:1002A0005ED052EA03045BD0C3F30A54C1F30A558B
:1002B0002C44A4F2F3340194A0FB0254C1F31301C3
:1002C00041F48011C3F3130343F4801301FB024490
:1002D00000FB034E840A970A44EA815447EA835795
:1002E000A4FB076802958D0A05FB07854FEA932C4E
:1002F00004FB0C542705029D4FEA065847EA1637BF
:10030000B5EB08056EEB070C870E920E47EA8117D6
:1003100042EA8312A7FB0201B6EB0B0164EB000477
:100320002B0D43EA0C335E1844EB1C50DA46514661
:10033000E7FB0201C5F313044FEA0B3343EA1453FE
:100340004FEA0432019C43EA0603A4F10C04029430
:10035000009CCDE900B400F003F903B0BDE8F08FD4
:1003600000200146F9E72DE9F04D81EA030404F08D
:10037000004B21F0004514464FF0000A23F00041E5
:1003800050EA050220D054EA01021DD0C5F30A57F5
:100390000246C5F31303C1F31300C1F30A5640F438
:1003A000801543F48013A7EB0608101BD64608F20D
:1003B000FD3873EB050002D308F1010801E0921843
:1003C0005B41B8F1000F03DA00200146BDE8F08D73
:1003D00000204FF48011064684460EE0171B73EB95
:1003E000050705D3121B63EB050306434CEA010C1A
:1003F00049084FEA300092185B4150EA0107EDD1FD
:1004000052EA030012D082EA040083EA050108439D
:1004100005D0101BAB4106D20122002306E00022CA
:100420004FF0004302E06FF0010253101AEB060098
:100430004CEB085110EB0A0041EB0B01BDE8F04D0D
:1004400000F07FB80EB540F2334102910021CDE9B2
:1004500000110A460B4600F083F803B000BD01F01E
:10046000004330B421F0004150EA010206D00A0DE9
:10047000A2F56072C1F31301002A02DC30BC002037
:100480007047440F44EAC104C100E01830BC00EBDF
:10049000C25000F01FB8202A04DB203A00FA02F113
:1004A000002070479140C2F1200320FA03F3194362
:1004B00090407047202A04DB203A21FA02F0002104
:1004C000704721FA02F3D040C2F120029140084364
:1004D000194670470029A8BF7047401C490008BF53
:1004E00020F00100704710B4B0FA80FC00FA0CF064
:1004F00050EA010404BF10BC704749B1CCF120049C
:1005000021FA04F411FA0CF118BF01212143084328
:10051000A3EB0C01CB1D4FEA00614FEA102042BF54
:10052000002010BC704700EBC35010440029A4BF4A
:1005300010BC7047401C490008BF20F0010010BCEF
:10054000704710B5141E73F1000408DA401C41F125
:10055000000192185B411A4301D120F0010010BD47
:100560002DE9F04D92469B4611B1B1FA81F202E0BD
:10057000B0FA80F220329046FFF78DFF04460F4616
:1005800040EA0A0041EA0B0153465A46084313D099
:10059000114653EA010019D0C8F140025046FFF756
:1005A00089FF05460E46504659464246FFF773FFFF
:1005B000084305D0012004E020463946BDE8F08D0F
:1005C0000020054346EAE0762C4337430A9863054A
:1005D000E40AA0EB08000022FD0A44EA47540A306E
:1005E00002D500200146E9E7010510196941DDE95E
:1005F000084500196941BDE8F04DA2E7064C074DDA
:1006000006E0E06840F0010394E8070098471034E2
:10061000AC42F6D3FFF7DAFD88160008A8160008EA
:1006200010B50F490F4800F0CFF9002816D10D483A
:1006300000F06CF90C4C80B22080FFF703FF9FEDB7
:100640000B1B53EC112BFFF71CFE9FED0A1B53EC09
:10065000112BFFF788FEFFF702FF606010BD00005E
:10066000A086010018000020000000206666666673
:1006700066660A400000000000FEAF40464910B523
:100680004A6822F440324A604A6843681A434A6022
:1006900001684A6822F480724A6001684A68036906
:1006A00042EA03224A6001684A6822F040724A60C6
:1006B00001684A6883681A434A6001688A6822F4BC
:1006C00000628A6001688A68C3681A438A60816A26
:1006D0006FF07062D14201688A6822F070628A60AD
:1006E00001688A680CD0836A1A438A6001688A6844
:1006F00022F040528A6001688A68C36A1A4301E0A6
:1007000022F040528A6001688A6822F002028A6000
:1007100001688A68037E42EA43028A6090F82010EA
:10072000002901684A680FD042F400624A600168FB
:100730004A6822F460424A6001684A68174C436A7A
:1007400004EB43331A4301E022F400624A6001687B
:10075000CA6A22F47002CA620168CA6A838B104CAA
:1007600004EB03531A43CA6201688A6822F40072D8
:100770008A6001688A6890F8303042EA43228A60D1
:1007800001688A6822F480628A6001688A68406928
:1007900042EA8020886010BD0023014000E0FFFF96
:1007A0000000F0FFFEE7704778B50024009490F851
:1007B0003C20012A19D0012280F83C200A68072336
:1007C0000568092A13D9EE680A3A02EB42029340FF
:1007D0009E43EE600B788A680A3B03EB43039A4022
:1007E0000368DD682A43DA6010E0022078BD2E69D4
:1007F00002EB420293409E432E610B788A6803EB22
:1008000043039A4003681D692A431A614A681F23FB
:10081000072A13D205686E6B521E02EB82029340C8
:100820009E436E630A8893B20A79521E02EB8202DB
:1008300093400268556B2B43536327E005680D2AEC
:1008400012D22E6BD21F02EB820293409E432E6384
:100850000B790A88DB1F92B203EB83039A4003688B
:100860001D6B2A431A6311E0EE6A0D3A02EB820215
:1008700093409E43EE620B790A880D3B92B203EBE4
:1008800083039A400368DD6A2A43DA621B4B0568DA
:10089000194A9D420AD10D68122D07D1556825F4D9
:1008A00000055560556845F48005556005689D4212
:1008B0001DD1134D0B68AB4201D0112B17D15368DA
:1008C00023F480035360536843F4000353600968C2
:1008D000A9420CD10B490C4A0968B1FBF2F101EBBA
:1008E0008101490000E0491E00910029FBD180F8F8
:1008F0003C40002078BD0000002301400020014062
:10090000120000101400002040420F000068C06C6C
:10091000704770B504004FF0000503D0206C00262E
:1009200010B107E0012070BD204600F01DF866649C
:1009300084F83C60206CC00610D4206C20F48850F1
:1009400040F0020020642046FFF798FE6664206CA9
:1009500020F0020040F00100206400E0012584F84E
:100960003C60284670BD000010B586B004461421D6
:100970006846FFF77BFC1149206888421CD110486B
:100980000021026842F480720260006800F4807006
:1009900005900B481438026842F0010202600068BA
:1009A00000F001000590012000900320CDE9010135
:1009B0006946044800F07AF906B010BD00200140F5
:1009C00044380240000002402DE9F041044600682E
:1009D0000D4681684FF0000749050BD58068C005BA
:1009E00008D5206C40F02000206484F83C70012081
:1009F000BDE8F08100F02EFA06460FE0681C0DD02D
:100A000025B100F027FA801BA84207D9206C40F0DE
:100A10000400206484F83C700320E9E72068006843
:100A20008007EBD521686FF012000860206C40F45D
:100A3000007020642068816811F0405F13D1217E2E
:100A400089B9C16A11F4700F02D0806840050AD4D8
:100A5000206C20F480702064206CC00403D4206CCF
:100A600040F0010020640020C2E7000018B500211A
:100A7000009190F83C20012A07D0012280F83C2008
:100A800002689368DB0702D011E0022018BD93686A
:100A900043F0010393602A4A2A4B1268B2FBF3F237
:100AA00002EB420200E0521E0092002AFBD10268D3
:100AB0009368DB0741D0036C40F20164A34343F425
:100AC0008073036453685B0505D5036C23F40053FE
:100AD00043F480530364036CDB0404D5436C23F0BC
:100AE0000603436400E0416480F83C1016496FF04F
:100AF0002203136049680068CA06144906D0884278
:100B00001BD1816811F0405F13D016E08842F8D005
:100B10000F4A904203D1D1F80423D206F1D00D4AF6
:100B200090420AD1D1F8041301F01F011029E8D333
:100B300003E0816841F080418160002018BD000021
:100B40001400002040420F0000230140002001401B
:100B5000002101400022014070B54379012B1AD0D9
:100B6000012646710223037105682C6840F6FE7366
:100B700093409C43D1E900310B43934023432B60C6
:100B800001680B68C0249440A3430B6006710021E8
:100B90004171084670BD022070BD70B5040003D0DD
:100BA0002079002510B105E0012070BD6571204657
:100BB00000F008F80220207125610120207100203A
:100BC00070BD000010B586B0044614216846FFF7DA
:100BD0004DFB1149206888421CD110480021026851
:100BE00042F000520260006800F0005005900B488F
:100BF0001038026842F001020260006800F0010053
:100C00000590102000900320CDE9010169460448B9
:100C100000F04CF806B010BD0074004040380240AF
:100C20000000024018B5046800940068104421B127
:100C3000143000900360002018BD0830F9E730B58B
:100C40004279012A16D001224271022303710368FE
:100C50001D6802FA01F425431D60002901680B6834
:100C60000AD00C6803F4802304F46014B3F5802FD9
:100C70000FD015E0022030BD0C6803F0040304F02F
:100C80003804042B0CD1382C0AD14B6843F00103F3
:100C900005E0B4F5601F03D14B6843F002034B60DD
:100CA000027100214171084630BD00002DE9F84F66
:100CB00000224FF0010803254FF00F0E0B6808FAD1
:100CC00002F42340A3426ED14E68012E05D0022EBD
:100CD00003D0112E01D0122E12D186684FEA420C99
:100CE00005FA0CF7BE43CF6807FA0CF73743876065
:100CF0004668A6430C79C4F300149440344344601E
:100D0000C668570005FA07FC8C6826EA0C06BC404A
:100D10003443C4604C68022C01D0122C13D1D40887
:100D200000EB8404A346D4F8209054074FEAD46A19
:100D30000EFA0AF629EA06090E6906FA0AF646EAE2
:100D40000906CBF8206006680C7926EA0C0604F048
:100D50000304BC40344304604C68E40060D5334C69
:100D6000266846F480462660246822F0030604F4D0
:100D7000804400942E4C3444A446D4F80848960786
:100D8000370F0EFA07F6B4432A4EB04201D10026BF
:100D90001FE0294EB04201D101261AE0274EB04291
:100DA00002D1022615E03BE0254EB04201D10326D8
:100DB0000FE0244EB04201D104260AE0224EB04298
:100DC00001D1052605E0214EB04201D1062600E002
:100DD0000726BE402643CCF808681D4E34684F688D
:100DE0009C43FF0300D51C433460194E361D346804
:100DF0004F689C43BF0300D51C433460144E083633
:100E000034684F689C43FF0200D51C433460104E89
:100E10000C3634684F689C43BF0200D51C433460D5
:100E2000521C102AFFF44AAFBDE8F88F4438024044
:100E3000003001400000024000040240000802406F
:100E4000000C024000100240001402400018024052
:100E5000003C014001488068704700000800002005
:100E600002488168027811448160704708000020C0
:100E70000B4810B5016841F400710160016841F44C
:100E800080610160016841F480710160032000F01D
:100E900061F8002000F006F800F024F8002010BDF2
:100EA000003C024070B50D4D04464FF47A7128782D
:100EB000B1FBF0F00A490968B1FBF0F000F0E2FA8A
:100EC00048B9102C07D200222146501E00F022F80B
:100ED00000206C6070BD012070BD00000800002083
:100EE000140000200A4808B5016841F480410160FF
:100EF000006800F4804000900548001F016841F040
:100F000080510160006800F08050009008BD000032
:100F100044380240F0B40E4B1B680C46C3F3022366
:100F2000C3F10705042D00D90425191D072901D295
:100F3000002300E0DB1E012606FA05F1491E2140D0
:100F400099409E40761E16403143F0BC00F033BB02
:100F50000CED00E0064900F0070208684FF6FF03B9
:100F6000184040EA0220034A10430860704700001E
:100F70000CED00E00000FA052DE9F0470E460500F3
:100F800065D0DFF81481D8F80000F7B200F00F0048
:100F9000B04207D288F80070D8F8000000F00F00C7
:100FA000B04254D128683D4C810712D5400703D583
:100FB000206840F4E05020602878000703D52068BE
:100FC00040F4604020602068A96820F0F0000843E9
:100FD00020602878C0072DD030496868083901287A
:100FE00012D0022813D0032811D0096889070029DC
:100FF0002DDA216821F0030101432160FFF72AFF68
:10100000814641F2883A0EE009688903EFE70968F2
:101010008901ECE7FFF71EFFA0EB0901514502D95A
:101020000320BDE8F0872068696800F00C00B0EB91
:10103000810FEFD1D8F80010404601F00F01B14206
:1010400007D90770006800F00F00B04201D00120FE
:10105000E7E72878400705D52068E96820F4E050E4
:10106000084320602878000706D52068296920F405
:10107000604040EAC100206000F018F82168084A8A
:10108000C1F30311515CC840064908600648006876
:10109000FFF708FF0020C4E7003C02400838024088
:1010A00078160008140000200C000020224810B51B
:1010B000006810F00C02214815D04110042A11D00C
:1010C0001D4C241F082A0FD00C2A0CD1226823683B
:1010D00002F03F025B0221D52068C0F38810A0FB1C
:1010E000010120E0084610BD2268236802F03F029B
:1010F0005B0205D52068C0F38810A0FB010104E065
:101100002168C1F38811A1FB00010023FFF776F8E5
:101110002168C1F30141491C49000AE02168C1F37B
:101120008811A1FB00010023FFF768F82168C1F3D3
:101130000271B0FBF1F010BD083802400024F40049
:101140002DE9F84F0546DFF828B30078ABF1040726
:10115000C007A7F1040451D0DBF800105846C1F3D2
:10116000810101290FD00168C1F38101022902D157
:101170003968490207D40068C0F38100032809D107
:101180003868400206D52068800337D56868002893
:1011900072D033E06868B0F5803F10D0B0F5A02F72
:1011A000206810D020F480302060206820F4802057
:1011B00020606868A8B1FFF74DFE06460DE0206884
:1011C00040F48030F4E740F480202060F7E700BF6F
:1011D000FFF740FE801B642878D820688003F7D58D
:1011E0000CE0FFF737FE064605E000BFFFF732FED2
:1011F000801B6428F0D820688003F7D42878DFF8B3
:10120000749280074FF0000A46D5DBF8001058466C
:1012100011F00C0F0FD00168C1F38101022902D136
:101220003968490207D50068C0F38100032809D155
:101230003868400206D42068800715D5E868012880
:101240001AD111E0E868C0B10120C9F80000FFF729
:1012500001FE064605E000BFFFF7FCFD801B0228EB
:10126000BAD820688007F7D52068296920F0F800EF
:1012700040EAC10020600FE0F7E0C9F800A0FFF7E6
:10128000E9FD064605E000BFFFF7E4FD801B0228EC
:101290001CD820688007F7D42878000727D5DFF806
:1012A000D0817548696908F16C0881B1012101603C
:1012B000FFF7D0FD064604E0FFF7CCFD801B0228B7
:1012C00004D8D8F800008007F6D510E089E0C0F80F
:1012D00000A0FFF7BFFD064605E000BFFFF7BAFD1F
:1012E000801B02287DD8D8F800008007F6D4287823
:1012F000400769D55E484FF0000838300068C000EC
:101300000BD45B483830016841F0805101600068BF
:101310004FF0010800F080500090584E3068C00532
:1013200011D4306840F480703060FFF793FD009076
:1013300006E000BFFFF78EFD0099401A022850D842
:101340003068C005F6D54A4EA868683601280FD027
:101350000528306810D020F001003060306820F09F
:1013600004003060A868B8B1FFF774FD00900FE08A
:10137000306840F00100F4E740F004003060F7E727
:10138000FFF768FD0099411A41F28830814264D824
:1013900030688007F4D50EE0FFF75CFD009007E0B1
:1013A000FFF758FD0099411A41F28830814254D824
:1013B00030688007F4D4B8F1000F05D02C483830DD
:1013C000016821F080510160A869A8B3DBF8001022
:1013D000C1F38101022948D00228C9F860A005D0D4
:1013E00000E03AE0FFF736FD054639E0FFF732FD51
:1013F000064604E0FFF72EFD801B02282DD820684A
:101400008001F7D4F5E907010843E9681C4A490857
:1014100002EB0141AA6841EA82110843297C40EAB3
:101420000160297D40EA017038600120C9F8600040
:10143000FFF710FD054606E015E000BFFFF70AFDC7
:10144000401B022809D820688001F7D50BE000BFB7
:10145000FFF700FD401B022802D90320BDE8F88FEA
:1014600020688001F4D40020F8E70120F6E70000AE
:101470000838024000004742800E4742007000409A
:101480000000FFFF10B5401EB0F1807F01D30120A6
:1014900010BD4FF0E02460610F21601700F08BF861
:1014A0000020A06107202061002010BDFEE70000A1
:1014B0007FB5002412480094019402940F490394CC
:1014C00001604FF48031C0E9011401250461057603
:1014D00080F820400B49C0E90A14C561C46080F857
:1014E00030404561FFF715FA07200094CDE901501F
:1014F00069460348FFF758F97FBD0000002001400E
:10150000180000200100000FFEE770477047704789
:10151000FFF7A6BC30B593B034216846FEF7A6FEAF
:1015200014210DA8FEF7A2FE19480025016841F01C
:1015300080510160006800F08050129015480168E9
:1015400041F4404101600068022400F440401290E0
:1015500001200090000401908001CDE906400420A4
:101560000890A820CDE909040B9468460C94FFF775
:10157000E7FD0DA90F2081E831004FF4A050109035
:10158000E002119005210DA8FFF7F6FC13B030BD65
:1015900040380240007000400548016841F4700185
:1015A000016003494FF00060803908607047000017
:1015B00088ED00E0FEE70907090E002804DB00F1D2
:1015C000E02080F80014704700F00F0000F1E020E8
:1015D00080F8141D704702E008C8121F08C1002AD5
:1015E000FAD170477047002001E001C1121F002AA4
:1015F000FBD170471CB5FFF73BFCFFF78BFF1B4887
:101600000024016841F080010160016801F080015F
:101610000091016841F0010101600068154900F086
:10162000010000941248019408600846FFF7B5FADB
:101630000094002269460F480194FFF78DFAFFF7E6
:1016400037FF00210B48FFF7FAFA0A484838FFF73E
:101650000DFA40F6FF7400BFFEF7E2FF00222346BA
:1016600011460448FFF7DEFAF6E700003038024082
:101670000074004060000020000000000000000036
:101680000102030406070809A8160008000000204C
:1016900018000000D6150008C01600081800002029
:1016A00060040000E61500080000000000000000D3
:1016B0000100000010000000000000000024F40001
:04000005080001C529
:00000001FF
