:020000040800F2
:1000000050040020D9010008CB0E0008490E00085A
:10001000C90E0008E50200084712000800000000B1
:10002000000000000000000000000000CF0E0008EB
:10003000E702000800000000CD0E0008D10E000805
:10004000F3010008F3010008F3010008F3010008C0
:10005000F3010008F3010008F3010008F3010008B0
:10006000F3010008F3010008F3010008F3010008A0
:10007000F3010008F3010008F3010008F301000890
:10008000F3010008F3010008F3010008F301000880
:10009000F3010008F3010008F3010008F301000870
:1000A000F3010008F3010008F3010008F301000860
:1000B000F3010008F3010008F3010008F301000850
:1000C000F3010008F3010008F3010008F301000840
:1000D000F3010008F3010008F3010008F301000830
:1000E000F3010008F3010008F3010008F301000820
:1000F000F3010008F3010008F3010008F301000810
:10010000F3010008F3010008F3010008F3010008FF
:10011000F3010008F3010008F3010008F3010008EF
:10012000F3010008F3010008F3010008F3010008DF
:10013000F30100080000000000000000F3010008C7
:10014000F3010008F3010008F3010008F3010008BF
:10015000F3010008F3010008F3010008F3010008AF
:10016000F3010008F3010008F3010008F30100089F
:10017000F3010008F3010008F3010008000000008B
:1001800000000000F3010008000000000000000073
:10019000F30100080000000000000000F301000867
:1001A000000000000000000000000000F301000853
:1001B000F3010008F3010008F3010008F30100084F
:1001C000F3010008DFF80CD000F07AF8004800478F
:1001D000891200085004002006488047064800475E
:1001E000FEE7FEE7FEE7FEE7FEE7FEE7FEE7FEE7E7
:1001F000FEE7FEE7590F0008C50100082DE9F05F92
:100200000546002092469B46884606468146402485
:100210001BE0284641464746224600F041F8534637
:100220005A46C01A914110D311461846224600F092
:1002300028F82D1A67EB01084F46224601200021BD
:1002400000F01FF817EB00094E41201EA4F1010435
:10025000DFDC484631462A464346BDE8F09FD2B22D
:1002600001E000F8012B491EFBD270470022F6E79F
:1002700010B513460A4604461946FFF7F0FF20461C
:1002800010BD202A04DB203A00FA02F1002070475A
:100290009140C2F1200320FA03F3194390407047C4
:1002A000202A04DB203A21FA02F00021704721FACB
:1002B00002F3D040C2F12002914008431946704732
:1002C000064C074D06E0E06840F0010394E80700A3
:1002D00098471034AC42F6D3FFF778FFCC120008F1
:1002E000EC120008FEE770472DE9F84F00224FF0AE
:1002F000010803254FF00F0E0B6808FA02F42340A3
:10030000A3426ED14E68012E05D0022E03D0112ECD
:1003100001D0122E12D186684FEA420C05FA0CF772
:10032000BE43CF6807FA0CF7374387604668A64399
:100330000C79C4F30014944034434460C6685700F9
:1003400005FA07FC8C6826EA0C06BC403443C460FE
:100350004C68022C01D0122C13D1D40800EB840479
:10036000A346D4F8209054074FEAD46A0EFA0AF64E
:1003700029EA06090E6906FA0AF646EA0906CBF8E2
:10038000206006680C7926EA0C0604F00304BC40E1
:10039000344304604C68E40060D5334C266846F46E
:1003A00080462660246822F0030604F4804400940A
:1003B0002E4C3444A446D4F808489607370F0EFA5A
:1003C00007F6B4432A4EB04201D100261FE0294E61
:1003D000B04201D101261AE0274EB04202D10226D6
:1003E00015E03BE0254EB04201D103260FE0244E3C
:1003F000B04201D104260AE0224EB04201D10526C6
:1004000005E0214EB04201D1062600E00726BE409D
:100410002643CCF808681D4E34684F689C43FF03A0
:1004200000D51C433460194E361D34684F689C4318
:10043000BF0300D51C433460144E083634684F683F
:100440009C43FF0200D51C433460104E0C363468C8
:100450004F689C43BF0200D51C433460521C102AD5
:10046000FFF44AAFBDE8F88F443802400030014045
:10047000000002400004024000080240000C02405C
:10048000001002400014024000180240003C0140ED
:100490000148806870470000000000200248816821
:1004A0000278114481607047000000200B4810B5AD
:1004B000016841F400710160016841F480610160EC
:1004C000016841F480710160032000F061F80020B0
:1004D00000F006F800F024F8002010BD003C0240B7
:1004E00070B50D4D04464FF47A712878B1FBF0F0E9
:1004F0000A490968B1FBF0F000F0E4FA48B9102CA1
:1005000007D200222146501E00F022F800206C6025
:1005100070BD012070BD0000000000200C00002014
:100520000A4808B5016841F480410160006800F4A0
:10053000804000900548001F016841F08051016033
:10054000006800F08050009008BD00004438024070
:10055000F0B40E4B1B680C46C3F30223C3F107052E
:10056000042D00D90425191D072901D2002300E01C
:10057000DB1E012606FA05F1491E214099409E40E6
:10058000761E16403143F0BC00F05EBE0CED00E07C
:10059000064900F0070208684FF6FF03184040EADA
:1005A0000220034A10430860704700000CED00E091
:1005B0000000FA052DE9F0470E46050065D0DFF88A
:1005C0001481D8F80000F7B200F00F00B04207D253
:1005D00088F80070D8F8000000F00F00B04254D145
:1005E00028683D4C810712D5400703D5206840F4A8
:1005F000E05020602878000703D5206840F4604070
:1006000020602068A96820F0F00008432060287866
:10061000C0072DD0304968680839012812D0022857
:1006200013D0032811D00968890700292DDA216821
:1006300021F0030101432160FFF72AFF814641F2C7
:10064000883A0EE009688903EFE709688901ECE759
:10065000FFF71EFFA0EB0901514502D90320BDE8B9
:10066000F0872068696800F00C00B0EB810FEFD1D3
:10067000D8F80010404601F00F01B14207D90770C9
:10068000006800F00F00B04201D00120E7E72878B1
:10069000400705D52068E96820F4E0500843206051
:1006A0002878000706D52068296920F4604040EAD0
:1006B000C100206000F018F82168084AC1F3031156
:1006C000515CC8400649086006480068FFF708FF0B
:1006D0000020C4E7003C024008380240BC12000879
:1006E0000C00002004000020224810B5006810F023
:1006F0000C02214815D02149042A11D01D4C241F79
:10070000082A0FD00C2A0CD12268236802F03F027D
:100710005B0221D52068C0F38810A0FB010120E016
:10072000084610BD2268236802F03F025B0205D52F
:100730002068C0F38810A0FB010104E02168C1F328
:100740008811A1FB00010023FFF758FD2168C1F3C8
:100750000141491C49000AE02168C1F38811A1FB4D
:1007600000010023FFF74AFD2168C1F30271B0FBCD
:10077000F1F010BD083802400024F40040787D01FB
:100780002DE9F84F0546DFF828B30078ABF10407F0
:10079000C007A7F1040451D0DBF800105846C1F39C
:1007A000810101290FD00168C1F38101022902D121
:1007B0003968490207D40068C0F38100032809D1D1
:1007C0003868400206D52068800337D5686800285D
:1007D00072D033E06868B0F5803F10D0B0F5A02F3C
:1007E000206810D020F480302060206820F4802021
:1007F00020606868A8B1FFF74BFE06460DE0206850
:1008000040F48030F4E740F480202060F7E700BF38
:10081000FFF73EFE801B642878D820688003F7D558
:100820000CE0FFF735FE064605E000BFFFF730FE9F
:10083000801B6428F0D820688003F7D42878DFF87C
:10084000749280074FF0000A46D5DBF80010584636
:1008500011F00C0F0FD00168C1F38101022902D100
:100860003968490207D50068C0F38100032809D11F
:100870003868400206D42068800715D5E86801284A
:100880001AD111E0E868C0B10120C9F80000FFF7F3
:10089000FFFD064605E000BFFFF7FAFD801B0228BA
:1008A000BAD820688007F7D52068296920F0F800B9
:1008B00040EAC10020600FE0F7E0C9F800A0FFF7B0
:1008C000E7FD064605E000BFFFF7E2FD801B0228BA
:1008D0001CD820688007F7D42878000727D5DFF8D0
:1008E000D0817548696908F16C0881B10121016006
:1008F000FFF7CEFD064604E0FFF7CAFD801B022885
:1009000004D8D8F800008007F6D510E089E0C0F8D8
:1009100000A0FFF7BDFD064605E000BFFFF7B8FDEC
:10092000801B02287DD8D8F800008007F6D42878EC
:10093000400769D55E484FF0000838300068C000B5
:100940000BD45B483830016841F080510160006889
:100950004FF0010800F080500090584E3068C005FC
:1009600011D4306840F480703060FFF791FD009042
:1009700006E000BFFFF78CFD0099401A022850D80E
:100980003068C005F6D54A4EA868683601280FD0F1
:100990000528306810D020F001003060306820F069
:1009A00004003060A868B8B1FFF772FD00900FE056
:1009B000306840F00100F4E740F004003060F7E7F1
:1009C000FFF766FD0099411A41F28830814264D8F0
:1009D00030688007F4D50EE0FFF75AFD009007E07D
:1009E000FFF756FD0099411A41F28830814254D8F0
:1009F00030688007F4D4B8F1000F05D02C483830A7
:100A0000016821F080510160A869A8B3DBF80010EB
:100A1000C1F38101022948D00228C9F860A005D09D
:100A200000E03AE0FFF734FD054639E0FFF730FD1E
:100A3000064604E0FFF72CFD801B02282DD8206815
:100A40008001F7D4F5E907010843E9681C4A490821
:100A500002EB0141AA6841EA82110843297C40EA7D
:100A60000160297D40EA017038600120C9F860000A
:100A7000FFF70EFD054606E015E000BFFFF708FD95
:100A8000401B022809D820688001F7D50BE000BF81
:100A9000FFF7FEFC401B022802D90320BDE8F88FB7
:100AA00020688001F4D40020F8E70120F6E7000078
:100AB0000838024000004742800E47420070004064
:100AC0000000FFFF10B5401EB0F1807F01D3012070
:100AD00010BD4FF0E02460610F21601700F0B4FBFF
:100AE0000020A06107202061002010BD70B590F8A3
:100AF0003C20012A32D0012480F83C40022280F8B8
:100B00003D2003685A689D6822F070060A683243E7
:100B10005A60134B02689A4214D0B2F1804F11D040
:100B2000104B9A420ED0104B9A420BD00F4B9A4268
:100B300008D00F4B9A4205D00E4B9A4202D00E4B72
:100B40009A4204D1496825F080031943916080F8E6
:100B50003D40002180F83C10084670BD022070BD69
:100B6000000001400004004000080040000C00406C
:100B700000040140004001400018004010B504008E
:100B800003D094F83D0010B107E0012010BD002013
:100B900084F83C00204600F00DF8022084F83D0067
:100BA000211D206800F0E6F9012084F83D000020B6
:100BB00010BD000008B50068B0F1804F08D10548AD
:100BC000016841F001010160006800F0010000903F
:100BD00008BD00004038024070B5044690F83C0063
:100BE000012817D0012584F83C50022084F83D00EC
:100BF0002068826822F0770222F47F4282600868CF
:100C0000502830D00DDC20284DD005DC98B31028BA
:100C10003BD148E0022070BD302844D0402834D178
:100C200039E0602828D0702806D0B0F5805F2CD03D
:100C3000B0F5005F29D10AE0CB68D1E90121206835
:100C400000F009FA2068816841F0770109E0CB687B
:100C5000D1E90121206800F0FEF92068816841F4A3
:100C60008041816011E0CA684968206800F0C8FAD4
:100C70005021206807E016E0CA684968206800F043
:100C8000D0FA6021206800F0F0F984F83D5000208F
:100C900084F83C0070BDCA684968206800F0B0FA6A
:100CA00040212068EFE7226801461046EBE700008C
:100CB00010B586B0044614216846FFF7D7FA2068BD
:100CC000B0F1804F14D10B480021026842F00102BC
:100CD00002600068022200F00100059001200090EF
:100CE000CDE90121CDE9031069460348FFF7FCFA7D
:100CF00006B010BD303802400000024070B5044616
:100D000090F83C000D4601280DD0012684F83C6087
:100D1000022084F83D0042B1042A18D0082A2AD0C3
:100D20000C2A4DD139E0022070BD206800F0A6F9F0
:100D30002068816941F0080181612068816921F0A2
:100D400004018161206881692A69114311E02068EA
:100D500000F0C4F92068816941F400618161206874
:100D6000816921F480618161206881692A6941EA91
:100D70000221816124E0206800F0E6F92068C16961
:100D800041F00801C1612068C16921F00401C1611D
:100D90002068C1692A69114311E0206800F008FA4F
:100DA0002068C16941F40061C1612068C16921F412
:100DB0008061C1612068C1692A6941EA0221C1617B
:100DC00084F83D60002084F83C0070BD10B504003C
:100DD00003D094F83D0010B107E0012010BD0020C1
:100DE00084F83C00204600F00CF8022084F83D0016
:100DF000211D206800F0BEF8012084F83D0000208D
:100E000010BD704710B504460068012200F016F9C5
:100E10000B492068884202D00A49884203D1416CBC
:100E200041F4004141642068816801F0070106290E
:100E300003D0016841F001010160002010BD0000F5
:100E40000000014000040140FEE7000010B58EB034
:100E500000240794089409940A940B941C21684672
:100E60000C94FFF703FA17484FF08041016047F6F2
:100E7000FF41C0E901144911C0E903148461FFF77F
:100E80007DFE4FF48050079007A90E48FFF7A4FE9F
:100E90000C48FFF79BFF0B940BA90A480C94FFF733
:100EA00025FE602000904FF46170CDE9010400221E
:100EB000694604480494FFF721FF0248FFF7F8FE53
:100EC0000EB010BD10000020FEE77047704770475D
:100ED000FFF7E4BA30B593B034216846FFF7C6F99E
:100EE00014210DA8FFF7C2F919480025016841F047
:100EF00080510160006800F0805012901548016830
:100F000021F4404141F4804101600068022400F472
:100F10004040129001200390102004900094069409
:100F20000820CDE907504020CDE909040B9468461C
:100F30000C94FFF725FC0F20CDE90D048020CDE9AE
:100F40000F0501210DA81195FFF734FB13B030BD3B
:100F500040380240007000400548016841F47001CB
:100F6000016003494FF0006080390860704700005D
:100F700088ED00E0F0B50268254C264D264E274F3F
:100F8000274B4FF0804CA04209D0604507D0A842C3
:100F900005D0B04203D0B84201D0984204D122F02B
:100FA000700E4A6842EA0E02A0421BD0604519D07A
:100FB000A84217D0B04215D0B84213D0984211D0F1
:100FC000184DA8420ED0184DA8420BD0174DA8427C
:100FD00008D0174DA84205D0164DA84202D0164D94
:100FE000A84203D122F44075CA682A434D6922F011
:100FF00080022A4302608A68C2620A688262A04252
:1010000001D0984201D10969016301214161F0BD1C
:10101000000001400004004000080040000C0040B7
:1010200000040140004001400044014000480140EC
:1010300000180040001C00400020004010B501F0E6
:101040001F030121046A99408C430462016A9A409B
:101050001143016210BD10B5846842EA032224F4F2
:101060007F440A432243826010BD826822F07002EE
:101070000A4342F00701816070470000F0B5026A40
:1010800022F001020262036A42688469124E24F06F
:1010900073050C682C4323F002058B682B430D4D20
:1010A000A84201D0B04205D123F00807CB683B43EA
:1010B00023F00403A84201D0B04205D14D6922F4C7
:1010C000407215438A692A434260846149684163DA
:1010D0000362F0BD0000014000040140F0B5026A67
:1010E00022F010020262026A436884690D6824F4E7
:1010F000E64444EA05248D6822F0200242EA051203
:101100000F4D104EA84201D0B04206D1CF6822F058
:10111000800242EA071222F04002A84201D0B04207
:1011200007D14D6923F4406343EA85038D6943EA9F
:10113000850343608461496881630262F0BD0000F9
:101140000000014000040140F0B5026A22F4807200
:101150000262026A4368C46922F4007224F07305D3
:101160000C68124E2C438D6842EA05220E4DA842AF
:1011700001D0B04206D1CF6822F4006242EA0722D1
:1011800022F48062A84201D0B04207D14D6923F415
:10119000405343EA05138D6943EA05134360C46174
:1011A0004968C1630262F0BD0000014000040140D3
:1011B00030B5026A22F480520262046A4268C3694E
:1011C0000D6823F4E64343EA05238D6824F40054B4
:1011D00044EA0534084DA84202D0084DA84204D183
:1011E0004D6922F4804242EA85124260C361496837
:1011F0000164046230BD00000000014000040140B1
:1012000010B5036A046A24F001040462846924F0BE
:10121000F00444EA021423F00A020A4384610262E1
:1012200010BD10B5036A23F0100303628369046ADA
:1012300023F4704343EA023224F0A00343EA01118D
:101240008261016210BDFEE70907090E002804DB78
:1012500000F1E02080F80014704700F00F0000F16A
:10126000E02080F8141D704702E008C8121F08C172
:10127000002AFAD170477047002001E001C1121F17
:10128000002AFBD17047000008B5FFF70FF9FFF700
:1012900021FE0848016841F001010160006800F08A
:1012A00001000090FFF7D2FD00210348FFF7AAFDDF
:1012B000FEE700003038024010000020000000006F
:1012C000000000000102030406070809EC120008F0
:1012D000000000201000000068120008FC12000846
:1012E00010000020400400007812000801000000F7
:0C12F00010000000000000000024F400CA
:04000005080001C529
:00000001FF
